:020000040800F2
:10000000480C0020F901000845250008811B000864
:1000100041250008FD140008494C000800000000BC
:10002000000000000000000000000000A53F0008E4
:100030008116000800000000693A00082944000801
:10004000654C0008130200081302000813020008A0
:10005000130200081302000813020008130200082C
:10006000130200081302000813020008130200081C
:10007000130200081302000813020008130200080C
:1000800013020008130200081302000813020008FC
:1000900013020008130200081302000813020008EC
:1000A00013020008130200081302000813020008DC
:1000B00013020008130200081302000813020008CC
:1000C00013020008130200081302000813020008BC
:1000D000130200083D490008D54900081302000832
:1000E0008516000813020008130200081302000816
:1000F000130200081302000813020008130200088C
:10010000130200081302000813020008130200087B
:100110009547000869480008130200081302000808
:10012000130200081302000813020008130200085B
:1001300000F002F800F050F80AA090E8000C8244A9
:100140008344AAF10107DA4501D100F045F8AFF286
:10015000090EBAE80F0013F0010F18BFFB1A43F0A5
:10016000010318478CA30000ACA30000103A24BF81
:1001700078C878C1FAD8520724BF30C830C144BF0C
:1001800004680C607047000000230024002500264E
:10019000103A28BF78C1FBD8520728BF30C148BFEA
:1001A0000B607047662906F0CD82642900F0B680A6
:1001B000782900F0EF80732900F04F840020704709
:1001C0001FB500F061FC04000020002105F0B8FC20
:1001D000E0601FBD10B510BD00F05AFD1146FFF7DD
:1001E000EFFF05F033FC00F078FD03B4FFF7F2FFFA
:1001F00003BC04F067FD0000094880470948004738
:10020000FEE7FEE7FEE7FEE7FEE7FEE7FEE7FEE7C6
:10021000FEE7FEE704480549054A064B7047000023
:10022000B54400083101000848060020480C0020B1
:100230004808002048080020704700000FB4044917
:1002400010B503AA029800F00DFC10BC5DF814FB79
:10025000240000200FB41CB5074B06AA7B44694656
:100260000090059800F0CFFB0020694600F0DEFB0F
:100270001CBC5DF814FB0000CD07000070B50446FF
:1002800085690068C10601D5302600E02026C00738
:1002900007D070BDD4E9012130469047206A401C48
:1002A00020626D1EF6D570BD70B504468569007874
:1002B000C00707D170BDD4E9012120209047206AF2
:1002C000401C20626D1EF6D570BD70B50C4605460B
:1002D000012A05D02878800600D5EA69002302E0CB
:1002E000012305E05B1C934202D2E05C0028F9D1B7
:1002F000A869E618C01AA861286A18442862284626
:10030000FFF7BCFF04E0D5E9012114F8010B904789
:10031000B442F8D32846FFF7C7FF70BD2DE9F0417E
:100320000646002410687529314616A510D0AFF393
:100330000080002802DA404213A507E031688A07EE
:1003400001D512A502E0490704D511A5012401E059
:10035000AFF3008000210A2206F1240709E0B0FB78
:10036000F2FCB0FBF2F302FB1C003030785418466C
:10037000491C0028F3D123462A463046BDE8F04107
:1003800000F0D4B8000000002D0000002B00000099
:100390002000000070B504460D4621461068AFF3FA
:1003A00000802188090502D50F4A7A4402E00E4AEE
:1003B0007A440E32002104F1240305E000F00F0618
:1003C0000009965D5E54491C0028F7D1207800236F
:1003D000000704D5702D02D009B102231132204646
:1003E000BDE8704000F0A2B829A000002DE9F05F40
:1003F000894604464FF0000ADFF824B1FB44C0F8F8
:1004000020A02046E168884700287DD0252806D016
:10041000D4E901219047206A401C2062F1E70025C1
:100420005F462046E16888472028064607DB312ED4
:1004300005D2B81910F8200C08B10543F1E7A80758
:1004400001D525F00405C4F81CA00027C4F818A0A5
:100450002A2E09D0304604F02EFC38B304EB87086E
:10046000303EC8F8186019E059F8041B204604EB28
:1004700087029161E1688847012F064618D1E0693B
:10048000002820DA25F020051DE0D8F8180000EB40
:10049000800006EB40003038C8F818002046E168BC
:1004A0008847064604F007FC0028EED1012F0AD049
:1004B0002E2E08D12046E16888477F1C0646022F71
:1004C00045F02005C4DBA069002803DA404245F06E
:1004D0000105A061E80701D025F01005A6B1A6F13D
:1004E0004100192802D8203645F400654A463146B5
:1004F000204625604D46FFF755FE60B1012807D024
:10050000ED1D25F0070000E007E000F1080978E79D
:1005100005F1040975E730467AE7206ABDE8F09FE7
:10052000FF9F000070477047704770472DE9F04704
:100530000D4699469246044600F124080168880653
:1005400004D5E06921F01001216000E00120A842FB
:1005500001DD471B00E00027A1697A1902EB0900C1
:10056000081AA0612078C00602D42046FFF786FE54
:10057000002608E0D4E901211AF806009047206A15
:10058000401C761C20624E45F4DB2078C0060AD55C
:100590002046FFF773FE06E0D4E9012130209047A2
:1005A000206A401C2062381EA7F10107F4DC07E036
:1005B000D4E9012118F805009047206A401C206208
:1005C000281EA5F10105F3DC2046FFF76DFE20781B
:1005D000000602D50220BDE8F0870120FBE7704746
:1005E0002DE9FF4F0C461E464FF0FF378BB0D2E986
:1005F0000001DDF860800A908A46C1F30A5505B90A
:100600003D46002108464FF00000BAF1000F00F40B
:10061000400005DA00EB80004FF4400101EA500091
:100620004FEA9059B9F1010F00DDB9460A9850EA36
:100630004A000ED044F61050A5F2FF3545432F1462
:10064000B8F1000F1ED07542291E1EDDC9F100024F
:100650001CE0B8F1010F4FF0000001D0302103E0A1
:10066000F24305E02154401CB042FBDB304600223F
:10067000002121540B99C1F80880C1E900200FB076
:10068000BDE8F08FBD1B6D1CDEE74A4600DA69420B
:1006900006A800F083FA06AB93E8070003AB83E8F3
:1006A000070050460A9900F061FB8DE80700A0F5AD
:1006B00000501F3800900398002D0ADD42F21F0100
:1006C0004A460844002303A90390684600F0CAFD87
:1006D00009E0A0F500504A461F38002303A9039003
:1006E000684600F0D4FD8DE807000004000C03D03C
:1006F0004FF0FF30410800E01046B8F1000F03D082
:100700000022009215461EE0751E05D400F0C0F9C7
:10071000303262556D1EF9D5B3460122084302D02E
:1007200000227F1C04E02078302801D100227F1EA7
:10073000002A099784D01DE0112D07DA00F0A8F9EE
:10074000303262556D1C50EA0102F5D1084302D0E7
:100750000098C8B10EE00021681E05E0235C625CD1
:1007600063542254401E491C8142F7DBAB46A81B50
:10077000401E0990002004F80B000B98099AC0F85D
:100780000880C0E9002B7AE711264FF0000857E7F0
:100790002DE9F04F88460446D21D22F0070191B0A2
:1007A000D1E90001CDE90A0104F06EFA02460B9886
:1007B000C00F01D02D2007E02068810701D52B2034
:1007C00002E0202101EAC000032A099001D0072A93
:1007D00005DB03464146204600F0A0F90BE12078F6
:1007E000800601D5E06900E00620B8F1650F81467A
:1007F00006D0B8F1660F18D0B8F1670F70D131E0AC
:100800000020B9F1110F009001DB112301E009F183
:1008100001030AAA01A90CA8FFF7E2FEDDE90C70AA
:10082000002609F10105834647E001204B46009070
:100830004FF000470AAA01A90CA8FFF7D1FEDDE995
:100840000DB00C995D46002610B909F101000D1894
:10085000B9EB050003D4C0F1FF3609F10105A5EBA2
:1008600009002BE0B9F1010F01DA4FF00109002076
:10087000B9F1110F0090484601DD112300E0034655
:100880000AAA01A90CA8FFF7ABFEDDE90C704D46E2
:1008900000268346207800070AD4AB4500DA5D467F
:1008A00001A8012D04DD411911F8011C302907D0E0
:1008B0004F4502DA17F1040F04DA012082460FE0F7
:1008C0006D1EEEE7002F02DCED1B3E4403E0781CBA
:1008D000A84200DD7D1CB81B00F1010A4FF0004763
:1008E0002078000703D4AA4501DB4FF0FF3A00212E
:1008F000B7F1004F0DF143088DF8431024D00220CA
:100900002B23002F01DA7F422D230A21021EA0F1A2
:10091000010000DC5FB197FBF1FC97FBF1F201FBFA
:100920001C7C17460CF1300C08F801CDEEE7A8F15D
:10093000010003702188090501D5452100E06521EA
:10094000A0F1010800F8011C09980FA9A1EB080704
:10095000FF1D00B10120411901EBEA70A169384483
:10096000081A401EA0612078C00602D42046FFF776
:1009700085FC099828B1D4E901219047206A401CE0
:1009800020622078C00622D52046FFF777FC1EE0C3
:10099000002E04DBB34502DD01A8805D00E03020BD
:1009A000D4E901219047206A401C2062761CAAF1FC
:1009B00001005FEA000A0AD100F066F8C068016829
:1009C000405CD4E901219047206A401C2062281E27
:1009D000A5F10105DCDC07E0D4E9012118F8010BE1
:1009E0009047206A401C2062381EA7F10107F3DC03
:1009F0002046FFF759FC032011B041E601694A1C6B
:100A000002610878704700B58FB0CDE9013100214F
:100A1000059105497944CDE9031011466846FFF771
:100A2000E5FC0FB000BD0000E5FFFFFF0A6802F81B
:100A3000010B0A60704710B5436913B1AFF3008032
:100A400001E0FFF742FC012010BD127800F1240103
:100A50000A7000224A700122EDE711684FF0FF3260
:100A6000E9E70000074B70B50D467B44FFF7CBFF6D
:100A70000446284600F004F910B14FF0FF3070BD75
:100A8000204670BD834F00000048704704060020D8
:100A900030B5B0F10A024FEA900E71F100034EEA50
:100AA000817EB0EB0E0061EB91014FEA101E4EEA21
:100AB000017E10EB0E0041EB11114FEA102E4EEAB1
:100AC000016E10EB0E0041EB11214FEA104E4EEA81
:100AD000014E10EB0E0041EB1141401841F10001B5
:100AE0004FEAD00040EA41704FEAD10110EB800597
:100AF0004FEA810444EA907444EB01046D1944EB1D
:100B00000404521BA3414FF0000348BF0A3200D532
:100B100030BD401C41F1000130BD00002DE9F04125
:100B20001F46044603260168072A01F4006004DB1F
:100B300008B116A505E016A503E008B115A500E06B
:100B400015A521F010002060A069C01EA0610FB1A2
:100B5000401EA0612046FFF791FB4FB1D4E901216F
:100B600038469047206A401C2062C01C206206E084
:100B7000206AFAE7D4E9012115F8010B9047761EA7
:100B8000F8D22046FFF790FBBDE8F0814E414E00C1
:100B90006E616E00494E4600696E66002DE9F047B1
:100BA000814616468AB0354878440DC88DE80D0058
:100BB00032487844801C03AC0DC884E80D0041F62F
:100BC0009B300844372190FBF1F290FBF1F5A5F141
:100BD000800501FB12041B3C02D56442012000E0A9
:100BE0000020DFF898A080460027FA44AAF1BE0A48
:100BF0000EE0E0070AD03246684607EB47010123C2
:100C00000AEB810100F043FB8DE8070064107F1CB4
:100C1000002CEED1194F7F44AE3F19E0E80715D004
:100C200007EB04100DF1180A90E80E008AE80E0098
:100C3000C068F04201D1981908903246012306A9F4
:100C400003A800F024FB03AB83E807006D10641CCD
:100C5000002DE3D14FF0010332466946B8F1000F91
:100C600003A802D000F0FEFA01E000F010FBC9E991
:100C70000001C9F808200AB0BDE8F087E09800003C
:100C8000007B00F08000704700487047E4050020BA
:100C90007546FFF7F9FFAE4605006946534620F05A
:100CA0000700854618B020B5FFF7B4FABDE820402C
:100CB0004FF000064FF000074FF000084FF0000B18
:100CC00021F00701AC46ACE8C009ACE8C009ACE8CB
:100CD000C009ACE8C0098D46704710B50446AFF3B3
:100CE00000802046BDE81040FFF77FBA4FF0013C7E
:100CF00050F8042B51F8043B9A4221D1A2EB0C038B
:100D0000934313EACC1317D150F8042B51F8043B4A
:100D10009A4215D1A2EB0C03934313EACC130BD1E7
:100D200050F8042B51F8043B9A4209D1A2EB0C0372
:100D3000934313EACC13DBD04FF00000704700BFA1
:100D4000D01A01BAB1FA81F101F0180122FA01F0CA
:100D5000CB40C1F12001DBB2C0B2C01A2CFA01F3C2
:100D6000D11A914311EAC311E6D170475FEA400CF2
:100D700008BF91F0000F4FEA8C234FEAC12243EAEB
:100D800051514FEA1C5018BF00F5F0404FEA3000B7
:100D900018BF41F000415FEA6C5C00F02980BCF1B3
:100DA000FF3F08BF40F080407047130C06BF12049D
:100DB0004FF0100C4FF0000C130E04BF12020CF198
:100DC000080C130F04BF12010CF1040C930F04BFA5
:100DD00092000CF1020CD30F04BF52000CF1010C75
:100DE00011464FF00002A0F11F00A0EB0C0070476D
:100DF00011F0004F08BF704731F000413FF4D5AF0C
:100E00000B0C06BF09044FF0100C4FF0000C0B0E3A
:100E100004BF09020CF1080C0B0F04BF09010CF10F
:100E2000040C8B0F04BF89000CF1020CCB0F04BF24
:100E300049000CF1010CCCF12003A0EB0C0022FACC
:100E400003F302FA0CF241EA030100F101007047DA
:100E500020F07F4C80EA030023F07F47ACEB0703D0
:100E600003F57C5300F0004003F1FF032DE98049B6
:100E70004FEA154B09B44FEA144325EA0B4E24EA16
:100E800003480FF2042606EB132749083E785FEA71
:100E9000320203FB0667C7F5000707FB06F64FEAB9
:100EA00054374FEAD64606F1020607FB066CCCF132
:100EB000005C4FEA1C472CEA074C07FB06F40CFBCE
:100EC00006F504EB15464FEA961634BF00204FF0A6
:100ED00000404FEAD13706FB07FC4FEA1C4C0CFBE5
:100EE0000BF7D21B03FB0CF761EB07010CFB0EF7B2
:100EF000B0EB074072EB17420CFB08F734BFA2EBD4
:100F00000742B2EB074261EB17414FEA0C444FEA4C
:100F1000910706FB07FC4FEA1C4C0CFB0BF7B0EBF0
:100F2000C74072EB573203FB0CF734BFA2EBC7424A
:100F3000B2EBC74261EB57310CFB0EF7B0EBC700C9
:100F400072EB57720CFB08F734BFA2EBC702B2EB8F
:100F5000C70261EB5771039F4FEA816141EA921129
:100F600004EBCC044FEAD1374FEA826206FB07FC60
:100F700042EA90124FEA80604FEA1C4C0CFB0BF7E0
:100F8000D21B03FB0CF761EB07010CFB0EF7B0EB78
:100F9000074072EB17420CFB08F734BFA2EB074285
:100FA000B2EB074261EB17414FEA8C554FEA9107CC
:100FB00004EB9C2406FB07FC4FEA1C4C0CFB0BF7D4
:100FC000B0EBC74072EB573203FB0CF734BFA2EB18
:100FD000C742B2EBC74261EB57310CFB0EF7B0EBE7
:100FE000C70072EB57720CFB08F734BFA2EBC702C5
:100FF000B2EBC70261EB577115EB4C254FEA8161EB
:1010000041EA92114FEA82624FEAD13742EA9012E6
:1010100006FB07FC44F100044FEA80604FEA1C4CD9
:101020000CFB0BF7D21B03FB0CF761EB07010CFB6E
:101030000EF7B0EB074072EB17420CFB08F734BF1A
:10104000A2EB0742B2EB074261EB174115EB1C150F
:101050004FEA813141EA92414FEA823242EA9042BC
:101060004FEA80304FEA0C7644F1000448EA03432B
:101070004EEA0B484FF0000EB2EB080C71EB030781
:1010800024BF624639464EEB0E0E4FF0000B00189F
:10109000524149414BEB0B0BB2EB080C71EB0307D0
:1010A0007BF1000B24BF624639464EEB0E0E4FF02B
:1010B000000B0018524149414BEB0B0BB2EB080CF3
:1010C00071EB03077BF1000B24BF624639464EEB00
:1010D0000E0E51EA020718BF46F0010616EB0E7617
:1010E00055F1000254F1000103D5BDE88901BDE8C6
:1010F0000088BDE88901BDE80048B619524141EBBE
:101100000101A3F10103704780807F7E7D7C7B7AA3
:101110007978777676757473727171706F6E6E6DA3
:101120006C6C6B6A6A696868676666656464636349
:1011300062616160605F5F5E5E5D5D5C5C5B5B5ACF
:101140005A5959585857575656555555545453533C
:1011500052525251515050504F4F4F4E4E4D4D4D97
:101160004C4C4C4B4B4B4A4A4A49494948484847E2
:101170004747474646464545454444444443434320
:101180004342424242414141002B9C4630D47700C9
:101190002BD01CB54FEA370703B44FF010004FF0C7
:1011A0001001BAF1000F06D0BCF1000FDCBF40F017
:1011B000080040F008014FF000000FBCBDE81040EF
:1011C0000BF1010BBBF1010F08BF5FEA170722BF4C
:1011D00012F1010211F101014FF0004143F100034E
:1011E00000F0004043EA00007047F9D35708D0E709
:1011F00046EA064613F1400F4FEA16461FDD13F18B
:10120000200FDFBF16430A46002120335B42BED0C9
:10121000C3F1200746EA064602FA07F74FEA1646E8
:1012200046EA0706C3F1200722FA03F201FA07F79C
:1012300021FA03F14FF0000342EA0702A7E746EA6A
:10124000020646EA06464FEA164646EA0106BCBFD3
:1012500046EA0646360C4FF000034FF000024FF00E
:10126000000194E72DE9804C9A46934670B491E8CA
:10127000380007C831EA400C48BF34EA430C03D5B4
:10128000FFF7E6FDFFF780FFF0BCBDE8008C2DE91D
:10129000804C9A46934670B491E8380007C810F025
:1012A000804F08BF13F0804F03D100F005F8FFF71F
:1012B0006BFFF0BCBDE8008C20F07F4780EA0300A4
:1012C00023F07F4C07EB0C03A3F57C5300F00040A8
:1012D000A3F1FE0392F0000F00F0B38095F0000F31
:1012E00000F077802DE901494FEA11404FEA14469A
:1012F00021EA004800FB06FC24EA064708FB06F644
:1013000007FB08F800FB07F718EB06484CEB164CF8
:101310004FEA124B18EB07484FEA15464CEB1740C3
:1013200022EA0B4E0BFB06FC25EA06470EFB06F6EF
:1013300007FB0EFE0BFB07F71EEB064E4CEB164CA5
:101340004FF000061EEB074E4CEB174B18EB0B084B
:1013500040F1000018EB0E0B58EB000840F10000C4
:101360008F1A4FF000013CBFC943661B14BFB5EB99
:10137000040C00213CBFC943F61B4FEA17444EEA58
:101380008E0E27EA04454FEA1C4704FB07622CEA4D
:10139000074C05FB07F70CFB05F604FB0CFC16EBF2
:1013A000074642EB174216EB0C4642EB1C421BEB86
:1013B000060658EB0202414146EA9E0601D5BDE809
:1013C0000189B619524141EB0101A3F10103BDE8C6
:1013D00001894FEA14454FEA114724EA054621EAFC
:1013E000074C05FB07F406FB07F70CFB06F105FBB2
:1013F0000CFC11EB074144EB17444FEA124711EB89
:101400000C4144EB1C4422EA074C05FB07F206FBA7
:1014100007F70CFB06F605FB0CFC16EB074642EB48
:10142000174216EB0C4642EB1C456A1854F10001BA
:1014300048BF7047B619524141EB0101A3F10103C6
:10144000704795F0000F37D04FEA11424FEA14472A
:1014500021EA024624EA074C02FB07F106FB07F7E4
:101460000CFB06F402FB0CFC14EB074441EB1741A8
:101470004FEA154714EB0C4441EB1C4125EA074C9D
:1014800002FB07F506FB07F70CFB06F602FB0CFC5C
:1014900016EB074645EB174516EB0C4645EB1C4291
:1014A000121951F1000148BF7047B619524141EB82
:1014B0000101A3F1010370474FEA14454FEA1147B8
:1014C00024EA054621EA074C05FB07F106FB07F76E
:1014D0000CFB06F24FF0000605FB0CFC12EB07427A
:1014E00041EB174112EB0C4251EB1C4148BF7047D6
:1014F000921841EB0101A3F10103704700BFFEE721
:1015000038B50024002000900921134803F088F921
:10151000142004F0C3F96946104803F05BF99DF804
:101520000000092812D10D4804F070FA0B49097A1D
:1015300088420BD109488478C07800EB042084B23B
:101540000020009000F00CF8204638BD4FF6FF74E4
:1015500000F006F82046F8E748670008410500203B
:10156000002000BF04E00021034A1154411CC8B20E
:101570000A28F8DB704700004105002010B53F48FD
:1015800000784A2827D13D484078312806D03228B3
:101590000BD0332810D034281CD114E0012004F0E3
:1015A0005FF8022004F05CF814E0012004F03AF83F
:1015B000022004F037F80DE0032004F051F8042075
:1015C00004F04EF806E0032004F02CF8042004F0A8
:1015D00029F800BF00BF2948007846281BD12748BA
:1015E0004078312806D0322808D033280AD0342851
:1015F00010D10BE0012003F04FFC0BE0012003F0C1
:101600003BFC07E0022003F047FC03E0022003F06C
:1016100033FC00BF00BF194800784C281BD1174885
:101620004078312806D0322808D033280CD034280E
:1016300010D10CE0022003F0BFFF0BE0022003F00A
:10164000ABFF03F041FB05E003F044FB02E003F0D5
:101650003BFB00BF00BF0948007842280DD1074876
:101660004078312802D0322806D102E003F032FB64
:1016700002E003F029FB00BF00BF10BD0101002004
:101680007047000010B54FF4006000F029F848B131
:101690000C48006810B901200B4908704FF4006035
:1016A00000F018F84FF4804000F01AF848B10748ED
:1016B0000068012801D1064908704FF4804000F00D
:1016C00009F810BD2C0121422900002038012442D4
:1016D0002A000020014908607047000014040140FE
:1016E000014600200022074B1B6803EA0102054B5C
:1016F00014331B680B4013B10AB1012000E0002035
:101700007047000000040140002123498279002A2B
:101710003AD00A46126803689A430B461A600A1DBB
:10172000126803689A430B1D1A60027911440A6813
:1017300003681A430A60184A0832126803689A4319
:10174000154B08331A601A1D126803689A43124B2E
:101750000C331A604279102A0ED11A1F12680368DE
:101760001A430D4B08331A601A1D126803681A4396
:10177000094B0C331A600DE00749427911440A689D
:1017800003681A430A6005E0027911440A68036895
:101790009A430A6070470000000401400EB5012121
:1017A000244800F083F90121084602F085FA0B2154
:1017B000002000F0CFF84FF40060019000208DF879
:1017C00008000C208DF8090001208DF80A0001A8FE
:1017D000FFF79AFF28208DF8000002208DF8010005
:1017E0008DF8020001208DF80300684601F022FE0A
:1017F0000E21062000F0AEF84FF48040019000204A
:101800008DF8080008208DF8090001208DF80A00E5
:1018100001A8FFF779FF28208DF8000002208DF83D
:1018200001008DF8020001208DF80300684601F0E8
:1018300001FE0EBD0002300051B18200A2F1C04293
:10184000126842F001038200A2F1C042136009E075
:101850008200A2F1C0421268034B1A408300A3F138
:10186000C0431A6070470000FEFF0F00D0E901126C
:101870001143C268114302691143426911438269ED
:101880001143C2691143026A1143426A1143826AD9
:101890001143C26A1143026B114302689200A2F124
:1018A000C0421160816808290BD101688900A1F14B
:1018B000C041096841F0400201688900A1F1C041BE
:1018C0000A60416B0968426B526841EA0211426B3F
:1018D000926841EA0221426B928941EA0241426BDD
:1018E000128A41EA0251426B127D41EA0261426B67
:1018F000926911430268521C9200A2F1C042116029
:10190000C16AB1F5804F1BD1816B0968826B526847
:1019100041EA0211826B926841EA0221826B128ACB
:1019200041EA0251826B127D41EA0261826B926947
:10193000114302689200A2F1C042C2F8041107E00C
:101940006FF0704201688900A1F1C041C1F8042123
:101950007047000030B500228B071C0F0F2303FADD
:1019600004F20B4B8C1053F824309343084C8D1029
:1019700044F8253023468C1053F824308C07240F6C
:1019800000FA04F42343024C8D1044F8253030BD96
:10199000080001402DE9F041024600250026002004
:1019A00000230024002791F803C00CF00F0591F8E4
:1019B00003C00CF0100CBCF1000F03D091F802C072
:1019C0004CEA050591F800C0BCF1000F31D0146855
:1019D00000202BE04FF0010C0CFA00F3B1F800C02E
:1019E0000CEA03069E4220D183004FF00F0C0CFA44
:1019F00003F7BC4305FA03FC4CEA040491F803C066
:101A0000BCF1280F06D14FF0010C0CFA00FCC2F813
:101A100014C00AE091F803C0BCF1480F05D14FF0A3
:101A2000010C0CFA00FCC2F810C0401C0828D1D3ED
:101A30001460B1F800C0BCF1FF0F34DD5468002021
:101A40002EE000F1080C4FF0010808FA0CF3B1F891
:101A500000C00CEA03069E4221D183004FF00F0C18
:101A60000CFA03F7BC4305FA03FC4CEA040491F8B2
:101A700003C0BCF1280F05D100F1080C08FA0CF8DE
:101A8000C2F8148091F803C0BCF1480F07D100F1EF
:101A9000080C4FF0010808FA0CF8C2F81080401C3E
:101AA0000828CED35460BDE8F0810000F0B50A46A6
:101AB000002300240021002500F00046B6F1004F6D
:101AC00002D11D4EF16901E01B4E7168C0F3034560
:101AD00083B200F44016B6F5401F08D121F07061C2
:101AE000154E766826F07066134F7E6012E000F4A3
:101AF0008016B6F5801F06D1032606FA05F4A14329
:101B000041F0706106E0460D360103FA06F6B14376
:101B100041F0706122B1460D360103FA06F63143F9
:101B200000F00046B6F1004F02D1034EF16101E032
:101B3000014E7160F0BD000000000140016170477E
:101B400010B50024002001F008FF0446210B0120FD
:101B50008840C4F30B0100FB01F4204610BD10B512
:101B600000247F2001F0F9FE0446204610BD10B588
:101B700000247E2001F0F1FE0446204610BD000046
:101B80000EE00849C96881F40061064AD16000206E
:101B900001E0411C88B242F210718842F9DB00BFBB
:101BA000EFE700000020014010B500200F49086059
:101BB0000F48406820F00F000D4948600846406813
:101BC00040F00300486000200A49C1F8A00102204B
:101BD00003F06AFE012005490860022003F064FE5C
:101BE00000200449C1F89C0110BD00009C01244262
:101BF000002001400000244210B500200F49086079
:101C00000F48406820F00F000D49486008464068C2
:101C100040F00300486001200A49C1F8A0010220F9
:101C200003F042FE012005490860022003F03CFE5B
:101C300000200449C1F89C0110BD00009C01244211
:101C4000002001400000244270B5054600241748DA
:101C5000406820F00F00154948600846406840F091
:101C600008004860002616E00020114908600220A4
:101C700003F01AFE01200F49C1F89C016006040E12
:101C80000B487C38006808B1601CC4B2012003F026
:101C90000BFE701CC6B2082EE6DB15B9FFF7ACFFD1
:101CA00001E0FFF781FF204670BD000000200140E9
:101CB0009C0124420000244270B504461848406844
:101CC00020F00F00164948600846406840F00300C5
:101CD000486000201349086000251EE0E00920B19B
:101CE00001201049091D086003E000200D49091D6D
:101CF00008606006040E022003F0D6FD01200949A9
:101D00000860022003F0D0FD00200749C1F89C01C3
:101D1000022003F0C9FD681CC5B2082DDEDB70BDD2
:101D2000002001409C0124420000244210B50F48CD
:101D3000406820F00F000D4948600846406840F0B8
:101D40000300486001200A4908600A49C1F89C0163
:101D5000042003F0A9FD002005490860042003F0D9
:101D6000A3FD00200349C1F89C0110BD00200140E3
:101D7000A00124420000244210B50F48406820F022
:101D80000F000D4948600846406840F00300486075
:101D900000200A4908600A49C1F8A001042003F0A4
:101DA00083FD0120054908600549C1F8A001042010
:101DB00003F07AFD10BD0000002001409C01244288
:101DC0000000244210B500241448406820F00F00A1
:101DD000124948600846406840F008004860012009
:101DE0000F49086003F060FD01200E49C1F89C0115
:101DF00003F05AFD07E0601CC4B2FA2C03DDFFF7C4
:101E0000BBFF012010BD0648803800680028F2D1D1
:101E10000349091F086000BFF4E7000000200140EB
:101E2000A0012442000024420948006801280CD186
:101E30000848006848B10748001F006828B10548F5
:101E40000838006808B1012070470020FCE7000056
:101E500000012142100123420948006801280CD0EA
:101E60000848006848B90748001F006828B10548BD
:101E70000838006808B1012070470020FCE7000026
:101E800000012142100123420948006801280CD0BA
:101E90000848006848B10748001F006828B905488D
:101EA0000838006808B1012070470020FCE70000F6
:101EB00000012142100123420948006801280CD08A
:101EC0000848006848B10748001F006828B1054865
:101ED0000838006808B9012070470020FCE70000BE
:101EE00000012142100123420948006801280CD159
:101EF0000848006848B90748001F006828B105482D
:101F00000838006808B1012070470020FCE7000095
:101F100000012142100123420948006801280CD029
:101F20000848006848B90748001F006828B90548F4
:101F30000838006808B1012070470020FCE7000065
:101F4000000121421001234210B502F0B5FF044602
:101F5000002C11DD012C02D0042C0CD105E0074827
:101F60000078401C0549087005E004480078401ED0
:101F70000249087000BF00BF10BD00000A00002029
:101F800070B506460024094805884088454300216D
:101F9000084600F08BF900F0C1FA00BF03E03046BC
:101FA00000F0B0FA641CAC42F9D370BD4C050020BF
:101FB00010B504467CB90020104988712C20088196
:101FC0002A2048812B2088814FF4A07008804FF48C
:101FD000F07048800EE00120084988712C200881AB
:101FE0002A2048812B2088814FF4F07008804FF41C
:101FF000A0704880002000F0C5F810BD4C050020FE
:102000002DE9FF4F84B081468A460020039002905C
:102010000698A0EB09050798A0EB0A06CDF80490F6
:10202000CDF800A0002D01DD012705E00DB9002746
:1020300002E04FF0FF376D42002E02DD4FF0010845
:1020400006E016B94FF0000802E04FF0FF38764284
:10205000B54201DD2C4600E034464FF0000B21E094
:10206000009A91B2019A90B200F022F803982844A5
:1020700003900298304402900398A04205DD039833
:10208000001B03900198384401900298A04205DD9E
:102090000298001B02900098404400900BF1010050
:1020A0001FFA80FB601C8345DADD08B0BDE8F08FC5
:1020B00030B504460D462946204600F0F7F800F0FA
:1020C0002DFA0248008800F01DFA30BD2C000020D7
:1020D00070B504460D4616460C49488900F018FABA
:1020E000201200F00FFAE0B200F00CFA07498889DC
:1020F00000F00EFA281200F005FAE8B200F002FA39
:1021000002490889314600F011FA70BD4C050020E3
:102110002DE9F04F05460E4617469846DDF824A0F7
:102120004FF0000B781B401C1FFA80FB344613E075
:102130002146284600F0BAF800F0F0F94FF0000907
:1021400006E0504600F0DEF909F101001FFA80F9BF
:10215000D945F6DB601C84B24445E9DDBDE8F08F6B
:1021600010B50246012000E050430B1EA1F101040E
:10217000E1B2F9D110BD00000148008870470000AD
:102180000008006C70B50546002447488079012896
:1021900018D1082D15D2DFE805F00406080A0C0E48
:1021A000101206250DE007250BE0042509E00525A2
:1021B00007E0012505E0002503E0032501E00225F5
:1021C00000BF00BF082D1CD2DFE805F00406090C93
:1021D0000F12151800BF14E044F0800411E044F021
:1021E00040040EE044F0C0040BE044F0200408E09A
:1021F00044F0600405E044F0A00402E044F0E00490
:1022000000BF00BF2146362000F090F904F0200006
:1022100068B12548008824494988884214DA224850
:102220000688408820490880084646800CE01E4801
:1022300000881D494988884206DD1B480688408879
:1022400019490880084646801749488900F060F916
:10225000002000F057F9002000F054F912490988D5
:10226000491EC1F30F2000F04DF90F490978491EAE
:10227000C8B200F047F90C49888900F049F90020FC
:1022800000F040F9002000F03DF907494988491E57
:10229000C1F30F2000F036F903498978491EC8B20E
:1022A00000F030F970BD00004C05002000B502467A
:1022B0000B460A49488900F02BF9101200F022F968
:1022C000D0B200F01FF90549888900F021F91812F1
:1022D00000F018F9D8B200F015F900BD4C05002047
:1022E0002DE9F84F80460E4617461C46B346204659
:1022F000E31704EB5373DB1021464FEAE47C04EB55
:102300005C7C4FEAEC0CA4EBCC0CBCF1000F02D0CF
:102310004FF0010C01E04FF0000C6344224604EB47
:10232000D27C4FEA6C0C03FB0CF3DBB20093A7F1F9
:102330002000C7B2002556E00C2C07D107EB470060
:102340002B4901EB800010F8059013E0102C05D10B
:10235000284800EB071010F805900BE0182C07D167
:1023600007EBC700244901EB800010F8059001E05D
:10237000BDE8F88F4FF0000A2FE009F0800030B17F
:102380001E48028831464046FFF7A2FE07E00A9841
:1023900028B91B48028831464046FFF799FE4FEAAC
:1023A00049604FEA1069701C86B216484088B042F6
:1023B00000DCDDE7A6EB0B00A0420AD15E4608F187
:1023C00001001FFA80F80F480088404500DCCFE785
:1023D00006E00AF1010000F0FF0ABAF1080FCCDBB9
:1023E00000BF681CC5B200988542A5DB00BFBFE7EF
:1023F00051670008C56B0008B57100082C0000206B
:102400002E0000204C0500202DE9FF4F81B007462B
:1024100091461E460E9D4FF0000A002439E0301B05
:10242000401EC1B20A20FFF79BFEB9FBF0F00A2163
:10243000B0FBF1F201FB1208BAF1000F16D1701EC9
:10244000A04213DDB8F1000F0ED10020AB4605EB22
:10245000DB71491001FB0471009088B22B462022E9
:102460000299FFF73DFF12E04FF0010A0020AB4652
:1024700005EBDB71491001FB0471009088B208F193
:102480003001CAB22B460299FFF72AFF00BF601C39
:10249000C4B2B442C3DB05B0BDE8F08F2DE9F84704
:1024A00004460D4690469946DDE9096704F0FF0AA7
:1024B00008EB04001FFA80F809EB05001FFA80F909
:1024C00016E0444502DB5446A81985B24D4500DBB1
:1024D00014E0002000903A78334629462046FFF762
:1024E000FFFE304606EBD07104EB61018CB27F1C1D
:1024F00038787E2802DC38782028E2DA00BFBDE890
:10250000F887000001490880704700000008006C4F
:102510000149088070470000FE07006C00B50249C1
:102520000889FFF7F5FF00BD4C05002000B5034604
:102530000A461846FFF7ECFF1046FFF7E3FF00BD21
:1025400000BFFEE7704710B5ED20FFF7E1FF012067
:10255000FFF7D8FFFE20FFF7D5FFEE20FFF7D8FFEB
:10256000DE20FFF7CFFF2120FFF7CCFFF120FFF7A0
:10257000CFFF0120FFF7C6FFDF20FFF7C9FF1020C4
:10258000FFF7C0FFC420FFF7C3FF8F20FFF7BAFF9C
:10259000C620FFF7BDFF0020FFF7B4FFE220FFF7E2
:1025A000B1FFE220FFF7AEFFE220FFF7ABFFBF2055
:1025B000FFF7AEFFAA20FFF7A5FFB020FFF7A8FFA7
:1025C0000D20FFF79FFF0020FFF79CFF0D20FFF776
:1025D00099FF0020FFF796FF1120FFF793FF0020DF
:1025E000FFF790FF1920FFF78DFF0020FFF78AFF0C
:1025F0002120FFF787FF0020FFF784FF2D20FFF742
:1026000081FF0020FFF77EFF3D20FFF77BFF0020CA
:10261000FFF778FF5D20FFF775FF0020FFF772FFDF
:102620005D20FFF76FFF0020FFF76CFFB120FFF781
:102630006FFF8020FFF766FF0020FFF763FF8B200E
:10264000FFF760FF0020FFF75DFF9620FFF75AFFBE
:102650000020FFF757FFB220FFF75AFF0020FFF7D7
:1026600051FF0020FFF74EFF0220FFF74BFF002035
:10267000FFF748FF0320FFF745FF0020FFF742FF69
:10268000B320FFF745FF0020FFF73CFF0020FFF7D6
:1026900039FF0020FFF736FF0020FFF733FF00204F
:1026A000FFF730FF0020FFF72DFF0020FFF72AFF84
:1026B0000020FFF727FF0020FFF724FF0020FFF78F
:1026C00021FF0020FFF71EFF0020FFF71BFF002067
:1026D000FFF718FF0020FFF715FF0020FFF712FF9C
:1026E0000020FFF70FFF0020FFF70CFF0020FFF78F
:1026F00009FF0020FFF706FF0020FFF703FF00207F
:10270000FFF700FF0020FFF7FDFE0020FFF7FAFEB5
:102710000020FFF7F7FEB420FFF7FAFE8B20FFF74B
:10272000F1FE0020FFF7EEFE9620FFF7EBFE002003
:10273000FFF7E8FEA120FFF7E5FE0020FFF7E2FE2D
:10274000B520FFF7E5FE0220FFF7DCFE0020FFF7D3
:10275000D9FE0320FFF7D6FE0020FFF7D3FE0420AA
:10276000FFF7D0FE0020FFF7CDFEB620FFF7D0FE2A
:102770000020FFF7C7FE0020FFF7C4FEB720FFF7D9
:10278000C7FE0020FFF7BEFE0020FFF7BBFE3F2084
:10279000FFF7B8FE0020FFF7B5FE5E20FFF7B2FEA0
:1027A0000020FFF7AFFE6420FFF7ACFE0020FFF72C
:1027B000A9FE8C20FFF7A6FE0020FFF7A3FEAC20A9
:1027C000FFF7A0FE0020FFF79DFEDC20FFF79AFE3A
:1027D0000020FFF797FE7020FFF794FE0020FFF720
:1027E00091FE9020FFF78EFE0020FFF78BFEEB207E
:1027F000FFF788FE0020FFF785FEDC20FFF782FE52
:102800000020FFF77FFEB820FFF782FE0020FFF7D1
:1028100079FE0020FFF776FE0020FFF773FE002010
:10282000FFF770FE0020FFF76DFE0020FFF76AFE45
:102830000020FFF767FE0020FFF764FEBA20FFF7D5
:1028400067FE2420FFF75EFE0020FFF75BFE0020FE
:10285000FFF758FE0020FFF755FEC120FFF758FE96
:102860002020FFF74FFE0020FFF74CFE5420FFF71B
:1028700049FE0020FFF746FEFF20FFF743FE002041
:10288000FFF740FEC220FFF743FE0A20FFF73AFEA3
:102890000020FFF737FE0420FFF734FE0020FFF78B
:1028A00031FEC320FFF734FE3C20FFF72BFE002053
:1028B000FFF728FE3A20FFF725FE0020FFF722FE53
:1028C0003920FFF71FFE0020FFF71CFE3720FFF71F
:1028D00019FE0020FFF716FE3C20FFF713FE002034
:1028E000FFF710FE3620FFF70DFE0020FFF70AFE6F
:1028F0003220FFF707FE0020FFF704FE2F20FFF72E
:1029000001FE0020FFF7FEFD2C20FFF7FBFD00205D
:10291000FFF7F8FD2920FFF7F5FD0020FFF7F2FD96
:102920002620FFF7EFFD0020FFF7ECFD2420FFF746
:10293000E9FD0020FFF7E6FD2420FFF7E3FD00207E
:10294000FFF7E0FD2320FFF7DDFD0020FFF7DAFDB4
:102950003C20FFF7D7FD0020FFF7D4FD3620FFF71E
:10296000D1FD0020FFF7CEFD3220FFF7CBFD002088
:10297000FFF7C8FD2F20FFF7C5FD0020FFF7C2FDC0
:102980002C20FFF7BFFD0020FFF7BCFD2920FFF73B
:10299000B9FD0020FFF7B6FD2620FFF7B3FD0020AC
:1029A000FFF7B0FD2420FFF7ADFD0020FFF7AAFDE3
:1029B0002420FFF7A7FD0020FFF7A4FD2320FFF749
:1029C000A1FD0020FFF79EFDC420FFF7A1FD6220BE
:1029D000FFF798FD0020FFF795FD0520FFF792FD1A
:1029E0000020FFF78FFD8420FFF78CFD0020FFF70C
:1029F00089FDF020FFF786FD0020FFF783FD1820FA
:102A0000FFF780FD0020FFF77DFDA420FFF77AFD92
:102A10000020FFF777FD1820FFF774FD0020FFF777
:102A200071FD5020FFF76EFD0020FFF76BFD0C20BD
:102A3000FFF768FD0020FFF765FD1720FFF762FD37
:102A40000020FFF75FFD9520FFF75CFD0020FFF7FA
:102A500059FDF320FFF756FD0020FFF753FDE62058
:102A6000FFF750FD0020FFF74DFDC520FFF750FD9B
:102A70003220FFF747FD0020FFF744FD4420FFF719
:102A800041FD0020FFF73EFD6520FFF73BFD0020E4
:102A9000FFF738FD7620FFF735FD0020FFF732FD08
:102AA0008820FFF72FFD0020FFF72CFDC620FFF741
:102AB0002FFD2020FFF726FD0020FFF723FD172024
:102AC000FFF720FD0020FFF71DFD0120FFF71AFD95
:102AD0000020FFF717FDC720FFF71AFD0020FFF7C2
:102AE00011FD0020FFF70EFD0020FFF70BFD002079
:102AF000FFF708FDC820FFF70BFD0020FFF702FDE0
:102B00000020FFF7FFFC0020FFF7FCFC0020FFF790
:102B1000F9FCC920FFF7FCFC0020FFF7F3FC0020C4
:102B2000FFF7F0FC0020FFF7EDFC0020FFF7EAFCC8
:102B30000020FFF7E7FC0020FFF7E4FC0020FFF790
:102B4000E1FC0020FFF7DEFC0020FFF7DBFC0020AB
:102B5000FFF7D8FC0020FFF7D5FC0020FFF7D2FCE0
:102B60000020FFF7CFFC0020FFF7CCFC0020FFF790
:102B7000C9FC0020FFF7C6FCE020FFF7C9FC1620C7
:102B8000FFF7C0FC0020FFF7BDFC1C20FFF7BAFCDC
:102B90000020FFF7B7FC2120FFF7B4FC0020FFF76F
:102BA000B1FC3620FFF7AEFC0020FFF7ABFC46205F
:102BB000FFF7A8FC0020FFF7A5FC5220FFF7A2FCBE
:102BC0000020FFF79FFC6420FFF79CFC0020FFF72C
:102BD00099FC7A20FFF796FC0020FFF793FC8B20EE
:102BE000FFF790FC0020FFF78DFC9920FFF78AFC8F
:102BF0000020FFF787FCA820FFF784FC0020FFF7E8
:102C000081FCB920FFF77EFC0020FFF77BFCC4208D
:102C1000FFF778FC0020FFF775FCCA20FFF772FC75
:102C20000020FFF76FFCD220FFF76CFC0020FFF7BD
:102C300069FCD920FFF766FC0020FFF763FCE02069
:102C4000FFF760FC0020FFF75DFCF320FFF75AFC64
:102C50000020FFF757FCE120FFF75AFC1620FFF792
:102C600051FC0020FFF74EFC1C20FFF74BFC00201E
:102C7000FFF748FC2220FFF745FC0020FFF742FC4D
:102C80003620FFF73FFC0020FFF73CFC4520FFF714
:102C900039FC0020FFF736FC5220FFF733FC002000
:102CA000FFF730FC6420FFF72DFC0020FFF72AFC23
:102CB0007A20FFF727FC0020FFF724FC8B20FFF78A
:102CC00021FC0020FFF71EFC9920FFF71BFC0020D1
:102CD000FFF718FCA820FFF715FC0020FFF712FCF7
:102CE000B920FFF70FFC0020FFF70CFCC420FFF712
:102CF00009FC0020FFF706FCCA20FFF703FC0020B8
:102D0000FFF700FCD220FFF7FDFB0020FFF7FAFBE6
:102D1000D820FFF7F7FB0020FFF7F4FBE020FFF7D8
:102D2000F1FB0020FFF7EEFBF320FFF7EBFB0020A9
:102D3000FFF7E8FBE220FFF7EBFB0520FFF7E2FBE4
:102D40000020FFF7DFFB0B20FFF7DCFB0020FFF785
:102D5000D9FB1B20FFF7D6FB0020FFF7D3FB342065
:102D6000FFF7D0FB0020FFF7CDFB4420FFF7CAFBA5
:102D70000020FFF7C7FB4F20FFF7C4FB0020FFF741
:102D8000C1FB6120FFF7BEFB0020FFF7BBFB7920F2
:102D9000FFF7B8FB0020FFF7B5FB8820FFF7B2FB79
:102DA0000020FFF7AFFB9720FFF7ACFB0020FFF7F9
:102DB000A9FBA620FFF7A6FB0020FFF7A3FBB72087
:102DC000FFF7A0FB0020FFF79DFBC220FFF79AFB57
:102DD0000020FFF797FBC720FFF794FB0020FFF7C9
:102DE00091FBD120FFF78EFB0020FFF78BFBD62055
:102DF000FFF788FB0020FFF785FBDD20FFF782FB54
:102E00000020FFF77FFBF320FFF77CFB0020FFF79C
:102E100079FBE320FFF77CFB0520FFF773FB002025
:102E2000FFF770FB0A20FFF76DFB0020FFF76AFB3E
:102E30001C20FFF767FB0020FFF764FB3320FFF740
:102E400061FB0020FFF75EFB4420FFF75BFB0020E7
:102E5000FFF758FB5020FFF755FB0020FFF752FB10
:102E60006220FFF74FFB0020FFF74CFB7820FFF7B5
:102E700049FB0020FFF746FB8820FFF743FB0020BB
:102E8000FFF740FB9720FFF73DFB0020FFF73AFBE1
:102E9000A620FFF737FB0020FFF734FBB720FFF732
:102EA00031FB0020FFF72EFBC220FFF72BFB002099
:102EB000FFF728FBC720FFF725FB0020FFF722FBC9
:102EC000D120FFF71FFB0020FFF71CFBD520FFF7E9
:102ED00019FB0020FFF716FBDD20FFF713FB002096
:102EE000FFF710FBF320FFF70DFB0020FFF70AFBB5
:102EF000E420FFF70DFB0120FFF704FB0020FFF7A4
:102F000001FB0120FFF7FEFA0020FFF7FBFA022089
:102F1000FFF7F8FA0020FFF7F5FA2A20FFF7F2FA98
:102F20000020FFF7EFFA3C20FFF7ECFA0020FFF754
:102F3000E9FA4B20FFF7E6FA0020FFF7E3FA5D20FD
:102F4000FFF7E0FA0020FFF7DDFA7420FFF7DAFA66
:102F50000020FFF7D7FA8420FFF7D4FA0020FFF70C
:102F6000D1FA9320FFF7CEFA0020FFF7CBFAA22088
:102F7000FFF7C8FA0020FFF7C5FAB320FFF7C2FA3F
:102F80000020FFF7BFFABE20FFF7BCFA0020FFF7D2
:102F9000B9FAC420FFF7B6FA0020FFF7B3FACD2044
:102FA000FFF7B0FA0020FFF7ADFAD320FFF7AAFA37
:102FB0000020FFF7A7FADD20FFF7A4FA0020FFF7B3
:102FC000A1FAF320FFF79EFA0020FFF79BFAE52015
:102FD000FFF79EFA0020FFF795FA0020FFF792FA1C
:102FE0000020FFF78FFA0020FFF78CFA0220FFF78E
:102FF00089FA0020FFF786FA2920FFF783FA0020DC
:10300000FFF780FA3C20FFF77DFA0020FFF77AFAFD
:103010004B20FFF777FA0020FFF774FA5D20FFF7E7
:1030200071FA0020FFF76EFA7420FFF76BFA0020A8
:10303000FFF768FA8420FFF765FA0020FFF762FACD
:103040009320FFF75FFA0020FFF75CFAA220FFF75A
:1030500059FA0020FFF756FAB320FFF753FA002081
:10306000FFF750FABE20FFF74DFA0020FFF74AFAAB
:10307000C420FFF747FA0020FFF744FACD20FFF7FE
:1030800041FA0020FFF73EFAD320FFF73BFA002079
:10309000FFF738FADC20FFF735FA0020FFF732FAA5
:1030A000F320FFF72FFA0020FFF72CFAE620FFF7B6
:1030B0002FFA1120FFF726FA0020FFF723FA342019
:1030C000FFF720FA0020FFF71DFA5620FFF71AFA43
:1030D0000020FFF717FA7620FFF714FA0020FFF719
:1030E00011FA7720FFF70EFA0020FFF70BFA66209F
:1030F000FFF708FA0020FFF705FA8820FFF702FA29
:103100000020FFF7FFF99920FFF7FCF90020FFF7F7
:10311000F9F9BB20FFF7F6F90020FFF7F3F9992042
:10312000FFF7F0F90020FFF7EDF96620FFF7EAF965
:103130000020FFF7E7F95520FFF7E4F90020FFF73B
:10314000E1F95520FFF7DEF90020FFF7DBF9452014
:10315000FFF7D8F90020FFF7D5F94320FFF7D2F9A0
:103160000020FFF7CFF94420FFF7CCF90020FFF74C
:10317000C9F9E720FFF7CCF93220FFF7C3F90020A7
:10318000FFF7C0F95520FFF7BDF90020FFF7BAF9A6
:103190007620FFF7B7F90020FFF7B4F96620FFF7B4
:1031A000B1F90020FFF7AEF96720FFF7ABF9002077
:1031B000FFF7A8F96720FFF7A5F90020FFF7A2F9AC
:1031C0008720FFF79FF90020FFF79CF99920FFF770
:1031D00099F90020FFF796F9BB20FFF793F900203B
:1031E000FFF790F99920FFF78DF90020FFF78AF992
:1031F0007720FFF787F90020FFF784F94420FFF7D5
:1032000081F90020FFF77EF95620FFF77BF90020B7
:10321000FFF778F92320FFF775F90020FFF772F91F
:103220003320FFF76FF90020FFF76CF94520FFF717
:1032300069F90020FFF766F9E820FFF769F9002037
:10324000FFF760F90020FFF75DF99920FFF75AF9C1
:103250000020FFF757F98720FFF754F90020FFF708
:1032600051F98820FFF74EF90020FFF74BF977203E
:10327000FFF748F90020FFF745F96620FFF742F90C
:103280000020FFF73FF98820FFF73CF90020FFF707
:1032900039F9AA20FFF736F90020FFF733F9BB20F0
:1032A000FFF730F90020FFF72DF99920FFF72AF9F1
:1032B0000020FFF727F96620FFF724F90020FFF729
:1032C00021F95520FFF71EF90020FFF71BF95520C3
:1032D000FFF718F90020FFF715F94420FFF712F95E
:1032E0000020FFF70FF94420FFF70CF90020FFF74B
:1032F00009F95520FFF706F90020FFF703F9E92047
:10330000FFF706F9AA20FFF7FDF80020FFF7FAF80B
:103310000020FFF7F7F80020FFF7F4F80020FFF790
:10332000F7F8AA20FFF7EEF8CF20FFF7F1F800201A
:10333000FFF7E8F80020FFF7E5F80020FFF7E2F8D4
:103340000020FFF7DFF80020FFF7DCF80020FFF790
:10335000D9F80020FFF7D6F80020FFF7D3F80020B7
:10336000FFF7D0F80020FFF7CDF80020FFF7CAF8EC
:103370000020FFF7C7F80020FFF7C4F80020FFF790
:10338000C1F80020FFF7BEF80020FFF7BBF80020CF
:10339000FFF7B8F8F020FFF7BBF80020FFF7B2F80E
:1033A0005020FFF7AFF80020FFF7ACF80020FFF740
:1033B000A9F80020FFF7A6F8F320FFF7A9F80020EE
:1033C000FFF7A0F8F920FFF7A3F80620FFF79AF817
:1033D0001020FFF797F82920FFF794F80020FFF757
:1033E00091F83A20FFF794F85520FFF78BF8112059
:1033F000FFF78EF8642002F051FA2920FFF788F8D1
:103400003520FFF785F80020FFF77CF85120FFF703
:103410007FF8FF20FFF776F85320FFF779F82C208C
:10342000FFF770F85520FFF773F88220FFF76AF86E
:1034300010BD000070B5002100230F22C47804B332
:10344000154C246804F4E064C4F5E064210AC1F179
:103450000403CA40447804FA03F1847814402143F9
:1034600009010E4C0678A155047804F01F050124CB
:10347000AC4005786D11AD0005F1E025C5F80041BF
:1034800009E0047804F01F050124AC40044D0678DF
:10349000761145F8264070BD0CED00E000E400E038
:1034A00080E100E002490143024A116070470000D8
:1034B0000000FA050CED00E000B587B0FE488288F8
:1034C000FEA104A8FCF7C6FE00204FF6FF7148F2EB
:1034D00030421823CDE90021029002220D211E2046
:1034E00000F0D6FD00204FF6FF7148F2304218235D
:1034F000CDE90021029003220D21372000F0C8FD04
:1035000000204FF6FF7148F230421823CDE9002128
:10351000029004220D21502000F0BAFD00204FF649
:10352000FF7148F230421823CDE9002102900522B4
:103530000D21692000F0ACFD00204FF6FF7148F22C
:1035400030421023CDE90021029002463421372079
:1035500000F09EFD00204FF6FF7148F2304210232C
:10356000CDE90021029001223421512000F090FD8C
:1035700000204FF6FF7148F230420C23CDE90021C4
:10358000029006220A21AA2000F082FD00204FF6B8
:10359000FF7148F230420C23CDE90021029007224E
:1035A0000A21B42000F074FD00204FF6FF7148F2AC
:1035B00030421023CDE90021029008225221372009
:1035C00000F066FD00204FF6FF7148F230421023F4
:1035D000CDE90021029009225221512000F058FD2E
:1035E00000204FF6FF7148F230421023CDE9002150
:1035F00002900A227021372000F04AFD00204FF689
:10360000FF7148F230421023CDE9002102900B22D5
:103610007021512000F03CFD00204FF6FF7148F270
:1036200030421023CDE9002102900C228E212C2063
:1036300000F02EFD00204FF6FF7148F230421023BB
:10364000CDE9002102900D228E21452000F020FDC1
:1036500000204FF6FF7148F230421023CDE90021DF
:1036600002900E228E215F2000F012FD00204FF606
:10367000FF7148F230421023CDE9002102900F2261
:10368000AC21272000F004FD00204FF6FF7148F226
:1036900030421023CDE9002102901A46AC21372098
:1036A00000F0F6FC00204FF6FF7148F23042102384
:1036B000CDE9002102901122AC21472000F0E8FC66
:1036C00000204FF6FF7148F230421023CDE900216F
:1036D00002901222AC21572000F0DAFC00204FF6B5
:1036E000FF7148F230421023CDE9002102901322ED
:1036F000AC21672000F0CCFC00204FF6FF7148F2AF
:1037000030421023CDE9002102901422CA21272043
:1037100000F0BEFC00204FF6FF7148F2304210234B
:10372000CDE9002102901522CA21372000F0B0FC1B
:1037300000204FF6FF7148F230421023CDE90021FE
:1037400002901622CA21472000F0A2FC00204FF66A
:10375000FF7148F230421023CDE900210290172278
:10376000CA21572000F094FC00204FF6FF7148F268
:1037700030421023CDE9002102901822E8212720B1
:1037800000F086FC00204FF6FF7148F23042102313
:10379000CDE9002102901922E821372000F078FCC1
:1037A00000204FF6FF7148F230421023CDE900218E
:1037B00002901A22E821472000F06AFC00204FF610
:1037C000FF7148F230421023CDE9002102901B2204
:1037D000E821572000F05CFC3BA00C210B46C822DE
:1037E000CDE900101921AA20FEF758FE39A01021BA
:1037F0000B46C822CDE900104FF4DC711E20FEF705
:103800004DFE04A810210B46C822CDE9001040F25D
:10381000C7111E20FEF742FE2FA010210B46C82222
:10382000CDE900104FF483711E20FEF737FE2DA066
:1038300010210B46C822CDE900104FF48371AA2055
:10384000FEF72CFE40F2DB13052211461046FEF770
:10385000D7FB40F21D1396222D211046FEF7D0FB18
:1038600040F2DB1340F23B1205211046FEF7C8FB85
:10387000052340F23B1219461846FEF7C1FB2D23E3
:1038800040F23B1219460520FEF7BAFB4B2340F2EB
:103890003B1219460520FEF7B3FB692340F23B12A9
:1038A00019460520FEF7ACFB872340F23B12194670
:1038B0000520FEF7A5FB1BE04C0500204C434420EF
:1038C00049443A2530345800323032332D372D30C8
:1038D00037000000312E300074656D705F6D6178C7
:1038E0003A00000074656D705F6D696E3A0000000B
:1038F000A52340F23B1219460520FEF781FBC323A6
:1039000040F23B1219460520FEF77AFBE12340F214
:103910003B1219460520FEF773FBFF2340F23B12D2
:1039200019460520FEF76CFB40F21D1340F23B12D6
:1039300019460520FEF764FB40F2DB1340F23B1210
:1039400019460520FEF75CFB07B000BD10B54CF230
:103950001041012000F02DF810BD2DE9F041054681
:1039600000260027FEF7E2F98A20FEF7A5F9FEF708
:1039700029FA2846FEF7A0F9FEF724FAFEF7FCF92B
:10398000FEF7D4F98B20FEF797F9FEF71BFA01201A
:10399000FEF75AF906460020FEF756F90746FEF7ED
:1039A000EBF9052001F07AFF34023C432046BDE8E4
:1039B000F08170B505460C46FEF7B8F98A20FEF78F
:1039C0007BF9FEF7FFF92846FEF776F9FEF7FAF9DC
:1039D0002012FEF771F9FEF7F5F9E0B2FEF76CF987
:1039E000FEF7F0F9FEF7C8F970BD000038B5002405
:1039F000002000900921134800F07CFF142001F002
:103A00004DFF6946104800F04FFF9DF8000009285F
:103A100012D10D4802F00AF80B49097A88420BD1FD
:103A200009488478C07800EB042084B2002000901C
:103A300000F00CF8204638BD4FF6FF7400F006F891
:103A40002046F8E7CEA300089A050020002000BF1A
:103A500004E00021034A1154411CC8B20A28F8DBD3
:103A6000704700009A0500207047000010B506A0BE
:103A7000FCF7E4FB07A0FCF7E1FB1048FCF7DEFBDA
:103A80000FA0FCF7DBFB10BDB2D9D7F7CCE1CABE63
:103A90003A0D0A00312EB1BEB3CCD0F2D6D0A3ACD1
:103AA000C3BF203120C3EB2044533020BAECB5C64D
:103AB000B7ADD7AAD2BBB4CE0D0A0000A4A40008AB
:103AC0000D0A0D0A0000000070B515480468001DBD
:103AD0000568001D066823462A46314611A0FCF7FA
:103AE000ADFB1EA0FCF7AAFB1DA0FCF7A7FB2CA1B9
:103AF00035A0FCF7A3FB39A139A0FCF79FFB3DA142
:103B00003FA0FCF79BFB00230522032141A0FCF70B
:103B100095FB4FA0FCF792FB11A0FCF78FFB70BD4B
:103B2000E8F7FF1F0D0A435055203A2053544D33F8
:103B300032463130335A4554362C204C51465031A0
:103B400034342C20554944203D2025303858202538
:103B500030385820253038580A0D00000D0A000072
:103B60002A2A2A2A2A2A2A2A2A2A2A2A2A2A2A2AB5
:103B70002A2A2A2A2A2A2A2A2A2A2A2A2A2A2A2AA5
:103B80002A2A2A2A2A2A2A2A2A2A2A2A2A2A2A2A95
:103B90002A2A2A2A2A2A2A2A2A2A2A2A2A0D0A00EC
:103BA00057534E45505F5630312D3031325F5446B9
:103BB00054204C434420CFD4CABECAB5D1E9A3A8EF
:103BC00046534D43A3A900002A20C0FDB3CCC3FB3C
:103BD000B3C6203A2025730D0A000000312E3000B4
:103BE0002A20C0FDB3CCB0E6B1BE203A2025730D2B
:103BF0000A000000323032332D372D3037000000FC
:103C00002A20B7A2B2BCC8D5C6DA203A2025730D47
:103C10000A0000002A20B9CC20BCFE20BFE220B060
:103C2000E620B1BE203A205625642E25642E256458
:103C3000202853544D3332463130785F53746450EA
:103C400065726970685F447269766572290D0A0051
:103C50002A200D0A0000000029B1064A52690243D9
:103C6000044B5A6104E0034A52698243014B5A6192
:103C7000704700000010024029B1064AD269024391
:103C8000044BDA6104E0034AD2698243014BDA61F2
:103C9000704700000010024029B1064A1269024331
:103CA000044B1A6104E0034A12698243014B1A6112
:103CB000704700000010024029B1064A9269024391
:103CC000044B9A6104E0034A92698243014B9A6172
:103CD000704700000010024030B50021002200248F
:103CE00000232D4D6D6805F00C0121B1042905D08C
:103CF000082923D105E0294D056022E0274D056004
:103D00001FE0254D6D6805F47012234D6D6805F4B4
:103D10008034022505EB92421CB9214D55430560C4
:103D20000BE01D4D6D6805F400351DB11C4D55436C
:103D3000056002E0194D5543056002E0174D05602E
:103D400000BF00BF144D6D6805F0F0010909154D65
:103D50006B5C0568DD4045600F4D6D6805F4E06102
:103D6000090A104D6B5C4568DD4085600A4D6D6841
:103D700005F46051C90A0B4D6B5C4568DD40C560B8
:103D8000054D6D6805F44041890B074D6B5CC568B6
:103D9000B5FBF3F5056130BD0010024000127A005A
:103DA00000093D00500000206000002008B50121FE
:103DB0000846FFF781FF01211048FDF777FE01213A
:103DC0000420FFF779FF4FF40060ADF800004820B1
:103DD0008DF8030069460A48FDF7DCFD0121080261
:103DE000FFF76AFF4FF48040ADF8000028208DF8FF
:103DF000030069460348FDF7CDFD08BD0002300011
:103E000000080140002001402DE9F04F8BB008A9C7
:103E100042F6064000F08DF89DF8210002F0D8F837
:103E2000CDE900019DF8200002F0D2F88046002282
:103E3000284B02F0E1F80646DDE9002301F0C8FE58
:103E40000022254BCDE9020102F0D6F80022234BD7
:103E5000CDE9040101F064FF04460022204B02F08A
:103E6000C9F9824601F082FE07909DF8240002F015
:103E7000AFF8CDE902019DF8230002F0A9F806464B
:103E80000022144B02F0B8F88246DDE9022301F06B
:103E90009FFE80460022134B02F0AEF800220F4B2B
:103EA000CDE9040101F03CFF044601F05FFE0690FD
:103EB0000D49079808600D49069808600C490A48A2
:103EC000006802F00EFC03D201200BB0BDE8F08FB9
:103ED0000020FAE70000704000E06540E0FFEF409E
:103EE000008046400000594030000020340000208F
:103EF0000000014310B542F2362000F001F810BD79
:103F000010B50446FDF712FF8820FDF7D5FEFDF73A
:103F100059FF2012FDF7D0FEFDF754FFE0B2FDF788
:103F2000CBFEFDF74FFFFDF727FF0A2001F0B6FC9F
:103F300010BD2DE9F04105460E4600240027FDF78F
:103F4000F5FE8820FDF7B8FEFDF73CFF2812FDF7CF
:103F5000B3FEFDF737FFE8B2FDF7AEFEFDF732FF27
:103F6000FDF70AFF642001F099FCFDF7DFFE8920D0
:103F7000FDF7A2FEFDF726FF00BF0AE0052C01DADF
:103F8000012700E000273846FDF75EFE3055601C33
:103F9000C4B2062CF2DBFDF7EFFE642001F07EFCDC
:103FA000BDE8F081704710B500F002F810BD0000C8
:103FB0000CB50020019000903348006840F4803038
:103FC0003149086000BF3048006800F400300090BC
:103FD0000198401C0190009818B90198B0F5A06FA5
:103FE000F1D12948006800F4003010B101200090A0
:103FF00001E0002000900098012843D12348006888
:1040000040F01000214908600846006820F00300D5
:1040100008600846006840F0020008601A484068DE
:10402000194948600846406848600846406840F4BE
:10403000806048600846406820F47C10486008466C
:10404000406840F4E81048600846006840F080701E
:10405000086000BF0C48006800F000700028F9D02C
:104060000948406820F00300074948600846406856
:1040700040F00200486000BF0348406800F00C00B8
:104080000828F9D10CBD00000010024000200240B9
:104090002DE9FF4F81460D461C46AA462046E217F1
:1040A00004EB5272D2102146E31704EB5373DB107A
:1040B000A4EBC3030BB1012300E000231A446243C5
:1040C00002F0FF0B002632E0029800EB401000EBFC
:1040D000400019490844875D4FF0000821E007F0CF
:1040E000800028B1294648460D9AFDF7F1FF06E009
:1040F0000F9820B9294648460E9AFDF7E9FF780641
:10410000070E681C85B2A5EB0A00A04205D15546F2
:1041100009F101001FFA80F906E008F1010000F042
:10412000FF08B8F1080FDADB00BF701CC6B25E45AD
:10413000CADBBDE8FF8F0000117F000830B58BB0EF
:10414000AD48006802F040F9044622460B46ABA198
:1041500008A8FCF77FF8AB48006802F035F9044680
:1041600022460B46A5A105A8FCF774F8A6480068EE
:1041700002F02AF9044622460B46A0A103A8FCF748
:1041800069F808A810210B46C822CDE90010342197
:10419000CC20FEF783F905A810210B46C822CDE9F3
:1041A00000105221CC20FEF779F903A810210B460C
:1041B000C822CDE900107021CC20FEF76FF9102045
:1041C00005230090914802888E21BC20FEF71CF93F
:1041D0001020052300908E480288AC21B520FEF700
:1041E00013F91020022300908A4802784FF483715B
:1041F0006920FEF709F91020022300908648027812
:104200004FF48371F520FEF7FFF8844800784A28C0
:1042100016D182484078312803D08048407833282E
:104220000ED100204FF6FF714FF4FC621023CDE950
:10423000002102901A22CA21CD20FFF729FF0DE0AC
:1042400000204FF6FF714FF478421023CDE9002192
:1042500002901B22CA21CD20FFF71AFF6D4800787B
:1042600002F0ACF9044664480168204602F0BAF94D
:104270000BD36A480078462816D168484078312820
:1042800003D06648407833280ED100204FF6FF71E6
:104290004FF4FC621023CDE9002102901A22E8219C
:1042A000CD20FFF7F5FE0DE000204FF6FF714FF433
:1042B00078421023CDE9002102901B22E821CD2075
:1042C000FFF7E6FE564800780C283CD100204FF658
:1042D000FF714FF478421423CDE9002102901C2293
:1042E00040F245116420FFF7D3FE00204FF6FF7126
:1042F0004FF478421423CDE9002102901D2240F2B0
:1043000045118220FFF7C4FE00204FF6FF714FF4E5
:1043100078421423CDE9002102901E2240F245117B
:10432000A020FFF7B5FE00204FF6FF714FF4784252
:104330001423CDE9002102901F2240F24511BE2036
:10434000FFF7A6FE0AE04FF6FF7040F25913FA227B
:104350004FF4A07100906420FDF7DAFE3148007838
:104360000C283CD100204FF6FF714FF47842142303
:10437000CDE9002102901C224FF4B4716420FFF7B4
:1043800087FE00204FF6FF714FF478421423CDE9E9
:10439000002102901D224FF4B4718220FFF778FEB5
:1043A00000204FF6FF714FF478421423CDE900212D
:1043B000029020224FF4B471A020FFF769FE002084
:1043C0004FF6FF714FF478421423CDE9002102909B
:1043D00021224FF4B471BE20FFF75AFE0AE04FF6D7
:1043E000FF704FF4C873FA224FF4AF71009064204D
:1043F000FDF78EFE0BB030BD30000020252E32665A
:104400000000000034000020040000200000002014
:10441000080000200A0000200B00002001010020FD
:104420000D0000200C00002010B500F001F810BDB8
:1044300010B51B48006840B119480068401E184973
:10444000086010B9012017490870002408E004EB47
:104450004401154A02EB810001F025F9601CC4B249
:10446000042CF4DB11480068401C10490860084621
:1044700000686FF00041884202D100200B490860BB
:1044800001F010F90A480078401CC0B208490870D1
:104490000A2803DB0020087001F000F910BD0000BD
:1044A00010000020140000206400002018000020EC
:1044B0001C00002010B51348006840F001001149AD
:1044C000086008464068104908400E4948600846A0
:1044D00000680E4908400B4908600846006820F44F
:1044E000802008600846406820F4FE0048604FF4D1
:1044F0001F008860FFF757FD4FF000600449086017
:1045000010BD0000001002400000FFF8FFFFF6FEA3
:1045100008ED00E000B59DB0012007900020089054
:104520000F20099000200A900B900C900D900090A5
:1045300001900320029000200390049005900690C3
:1045400006200E9000200F90109010201190002057
:10455000129014901390159016904FF4805017906D
:10456000002018904FF48040199000201A9007A85E
:104570001B90CDF870D00EA8FDF778F90121062028
:10458000FDF75AF91DB000BD08B501210802FFF77B
:1045900063FB01214FF4B470FFF78EFB0120ADF8EF
:1045A000000010208DF8030003208DF802006946FA
:1045B0005848FDF7EFF918208DF8030003208DF817
:1045C00002004FF48050ADF8000069465248FDF7F4
:1045D000E1F90120ADF8000069464F48FDF7DAF92E
:1045E0004FF48050ADF8000069464B48FDF7D2F912
:1045F0002020ADF8000069464848FDF7CBF91020AF
:10460000ADF8000069464548FDF7C4F918208DF85B
:10461000030003208DF802004FF48040ADF8000045
:1046200069463E48FDF7B6F94FF40040ADF800008A
:1046300069463A48FDF7AEF90120ADF80000694639
:104640003648FDF7A7F90220ADF800006946334867
:10465000FDF7A0F98020ADF8000069463048FDF76D
:1046600099F94FF48070ADF8000069462C48FDF7C9
:1046700091F94FF40070ADF8000069462848FDF745
:1046800089F94FF48060ADF8000069462448FDF7D1
:1046900081F94FF40060ADF8000069462048FDF74D
:1046A00079F94FF48050ADF8000069461C48FDF7D9
:1046B00071F94FF40050ADF8000069461848FDF755
:1046C00069F94FF48040ADF8000069461448FDF7E1
:1046D00061F94FF40040ADF8000069461048FDF75D
:1046E00059F94FF48070ADF8000069460B48FDF7AA
:1046F00051F94FF40070ADF8000069460748FDF726
:1047000049F94FF48060ADF8000069460348FDF7B1
:1047100041F908BD000C0140002001400014014097
:104720000018014010B5FFF72FFFFFF7F3FE32200E
:1047300001F0B4F8D420FDF7EBFEFDF71DFD1349A1
:104740008880FDF719FD11498880FDF715FD0F4997
:104750008880084680884FF6FF7101EA00200B49E7
:104760008880FDF709FD0949898808430749888041
:10477000FDF7E9FE0020FDF71BFC0120044908605D
:104780004FF6FF70FDF7FCFB10BD00004C0500204C
:104790008081214210B540F225510B4800F07BF991
:1047A00080B1094800F032FAC4B2084800784028C5
:1047B00008DA074805490978445404480078401C41
:1047C0000249087010BD0000004C00402800002085
:1047D000010500202DE9F04107460D460E480678F8
:1047E0000024002028700A2001F058F80A480078B8
:1047F00086420FD176B100BF04E00848005D38550D
:10480000601CC4B2B442F8DB034800782870002072
:1048100001490870BDE8F081280000200105002052
:1048200070B505460E4600240CE000BF40210C4840
:1048300000F024F90028F9D0295D094800F0EBF9CF
:10484000601CC4B2B442F0DB00BF4021044800F059
:1048500015F90028F9D000200249087070BD000049
:10486000004C00402800002010B540F225510B48B4
:1048700000F011F980B1094800F0C8F9C4B2084845
:104880000078402808DA0748054909784454044864
:104890000078401C0249087010BD00000050004024
:1048A000380000205A0500202DE9F04107460D464A
:1048B0000E4806780024002028700A2000F0EEFF41
:1048C0000A48007886420FD176B100BF04E008485C
:1048D000005D3855601CC4B2B442F8DB0348007870
:1048E0002870002001490870BDE8F08138000020E0
:1048F0005A05002070B505460E4600240CE000BFA6
:1049000040210C4800F0BAF80028F9D0295D094888
:1049100000F081F9601CC4B2B442F0DB00BF40215A
:10492000044800F0ABF80028F9D0002002490870D4
:1049300070BD0000005000403800002010B500BFDE
:1049400040F22551104800F0A6F858B10E48001D5D
:104950000088C1B20D4802880088401C0B4B1880AB
:104960000B48815440F22441074800F094F848B1C4
:1049700005480088C4B20448001D0088C4B2012064
:104980000449087010BD00000038014022000020DA
:10499000010100202000002070B505460E460024CD
:1049A0000CE000BF40210A4800F068F80028F9D068
:1049B000295D074800F02FF9601CC4B2B442F0DB57
:1049C00000BF4021024800F059F80028F9D070BD1E
:1049D0000038014010B540F225510C4800F05BF85A
:1049E00098B10A4800F012F9C4B20948007840288A
:1049F0000BDA084806490978445405480078401CF9
:104A00000349087001200449087010BD00440040AB
:104A10003A000020A40500203900002070B50546AA
:104A20000E4600240CE000BF40210C4800F026F8A0
:104A30000028F9D0295D094800F0EDF8601CC4B2E7
:104A4000B442F0DB00BF4021044800F017F8002812
:104A5000F9D000200249087070BD000000440040F9
:104A60003A00002021B1828942F40052828104E0A0
:104A700082894DF6FF731A408281704702460020FA
:104A8000B1F5007F00D100BF13880B400BB10120AE
:104A900000E00020704770B5024600240023002586
:104AA000002040F66A16B14200D100BFC1F34215A2
:104AB00001F01F03012606FA03F3012D02D19689A6
:104AC000334006E0022D02D1168A334001E0968A77
:104AD00033400C12012606FA04F41688344013B150
:104AE0000CB1012000E0002070BDF0B503460024A9
:104AF00000260025002040F66A17B94200D100BF09
:104B00001846C1F3421401F01F06012707FA06F503
:104B1000012C01D10C3004E0022C01D1103000E056
:104B200014301AB107682F43076002E00768AF43EB
:104B30000760F0BD2DE9F04786B005460E4600241B
:104B4000A24600BFA1460027B08900B100BF2F4692
:104B50002C8A4CF6FF700440F08804432C82AC8908
:104B60004EF6F3100440B088318908437189084338
:104B70000443AC81AC8A4FF6FF400440B089044343
:104B8000AC8201A8FFF7A8F81F48874202D1DDF8E0
:104B900010A001E0DDF80CA0A88900F4004040B1AD
:104BA0000AEBCA0000EB0A1031684900B0FBF1F8CB
:104BB00007E00AEBCA0000EB0A1031688900B0FB7D
:104BC000F1F86420B8FBF0F004012009642101FB36
:104BD0001089A88900F4004040B1322000EBC900E0
:104BE000B0FBF1F000F00700044308E0322000EBD6
:104BF00009106421B0FBF1F000F00F0004432C8198
:104C000006B0BDE8F0870000003801400146888802
:104C1000C0F308007047C1F30802828070470000AB
:104C200000200249088002490870704722000020D5
:104C300020000020002002490870024908707047D7
:104C40003A0000203900002000BFFEE700200149A3
:104C500008607047082C004001480068C0B27047E7
:104C6000082C004010B5FFF7F7FF20B1FFF7EEFF6B
:104C70007F2000F001F810BD00F07F01014A1160B3
:104C800070470000002C0040490050EAC12018BFC6
:104C900004204A0D18BF40F0010040F2FF72B2EB51
:104CA000515F08BF40F00200012808BF052070478F
:104CB00080F31088704730380A2801D201207047ED
:104CC0000020704700BF704700200149086070470E
:104CD000AC0124420120014908607047AC01244224
:104CE0000146042901DB0020704701EB4100084A1E
:104CF00002EB80004078012808D1002001EB41023E
:104D0000034B03EB820250700120EDE70020EBE73C
:104D10006400002010B5044604B910BD012C00D178
:104D200002240120FFF7C4FF09480460002009495C
:104D30000870FFF7BDFF06E000F0D8F805480078DE
:104D4000012800D100E0F7E700BF00BFE5E7000061
:104D50001000002014000020F0B5034600224FF0A0
:104D6000E02675690F4E36680F4FB6FBF7F606FB67
:104D700003F400BF4FF0E026B16910E04FF0E026E9
:104D8000B06988420BD0884202D20E1A324402E047
:104D90002E1A0E4432440146A24200D300E0EDE751
:104DA00000BFF0BD3C00002040420F0070B505463A
:104DB000304800EB05142068804700283ED0207959
:104DC000052802DA0520207152E020790A2803DA4A
:104DD0002079401C20714BE0A07A38B90120A072E4
:104DE00005EB4501491CC8B200F00CFC20890028E5
:104DF0003EDDE088218988420DDAE088401C80B2DF
:104E0000E0802189884233D105EB4501C91CC8B235
:104E100000F0F8FB2CE0E07A002829DD207B401C24
:104E2000C0B22073E17A884222DB0020207305EBB8
:104E30004501491CC8B200F0E5FB19E020790528BE
:104E400002DD0520207110E0207918B12079401E84
:104E500020710AE0A07A012807D10020A07205EB9A
:104E60004501891CC8B200F0CDFB0020E080207312
:104E700070BD000094000020012803D10021054AE4
:104E8000116005E0022803D10021024A121D1160C1
:104E900070470000A0812142012803D10121054A69
:104EA000116005E0022803D10121024A121D1160A0
:104EB00070470000A08121420B48807A0A4AD27ACA
:104EC000904201D1002070470748807A064A115C61
:104ED0001046807A401CC0B290720A2801DB002084
:104EE00090720846EFE70000F4000020704710B50C
:104EF0004FF4A060FEF7D6FA00F0FAF800F07AF866
:104F000000F008F800F080F94FF4E13000F028FAE2
:104F100010BD000008B501210802FEF7CDFE0320F8
:104F20008DF8020010208DF80300C001ADF80000DC
:104F300069460248FCF72EFD08BD00000020014034
:104F400008B501210820FEF7B7FE0120FFF794FF06
:104F50000220FFF791FF03208DF8020010208DF84A
:104F600003000001ADF8000069460648FCF712FD99
:104F70004FF40070ADF8000069460248FCF70AFDE6
:104F800008BD0000000C014008B501210802FEF731
:104F900093FE01210802FEF78FFE8020ADF800008D
:104FA00010208DF8030003208DF8020069460D489B
:104FB000FCF7F0FC80210B48FCF7C0FD4FF480703B
:104FC000ADF8000010208DF8030003208DF80200DA
:104FD00069460448FCF7DEFC4FF480710148FCF799
:104FE000ADFD08BD0020014010B5FEF7DFFEFCF767
:104FF000D5FB10BD10B500F03BF800F001F810BD76
:1050000008B501214420FEF757FE01211548FCF7A1
:105010004DFD1020ADF8000048208DF803006946D2
:105020001148FCF7B7FC0820ADF8000048208DF8C7
:10503000030069460C48FCF7ADFC0420ADF8000005
:1050400048208DF8030069460748FCF7A3FC0120BF
:10505000ADF8000028208DF8030069460348FCF7EE
:1050600099FC08BD00023000001801400008014012
:105070000021174A9172D1721173002018E0642147
:10508000144A02EB001211810221124A02EB0012B3
:10509000117100210F4A02EB001291720D4A02EBCE
:1050A0000012D1720B4A02EB00121173411CC8B2FC
:1050B0000628E4DB0849074A1160084911610849DC
:1050C0001162084911630849116408491165704764
:1050D000F400002094000020291E0008591E00083A
:1050E000891E0008B91E0008E91E0008191F0008E3
:1050F00008B501214820FEF7DFFD012000F06CFA21
:10510000022000F069FA20210D48FCF717FD20214C
:105110000C48FCF713FD03208DF8020010208DF8D9
:1051200003002020ADF8000069460548FCF732FC7A
:105130002020ADF8000069460248FCF72BFC08BDB2
:10514000000C01400018014070B500240025FFF755
:105150001BFFFEF7FBFB052000F0A0FBFCF707FDA3
:105160000446642000F0A0FBFCF7F9FC054645F27C
:105170004940844205D143F20100854201D100201B
:1051800070BD0120FCE7000008B501211020FEF7EA
:1051900093FD012000F046FA022000F043FA0320BC
:1051A00000F040FA042000F03DFA03208DF80200E0
:1051B00010208DF803000120ADF8000069460C486E
:1051C000FCF7E8FB0220ADF8000069460848FCF750
:1051D000E1FB0420ADF8000069460548FCF7DAFB66
:1051E0000820ADF8000069460148FCF7D3FB08BD74
:1051F0000010014010B5642000F050FBFEF77AFE6D
:10520000642000F04BFB10BD70B5002016E00021BB
:1052100000EB40021F4B03EB8202516000EB4002A7
:1052200003EB8202916000EB400203EB82025170BB
:1052300000EB400203F82210411CC8B20428E6DB50
:10524000154909684FF47A73B1FBF3F2B2F1807F2C
:1052500000D31DE022F07F41491E4FF0E023596149
:1052600059170F23002907DA1C07260E0B4C01F0F3
:105270000F052D1F665503E01C07250E084C6554CD
:1052800000BF00214FF0E02399610721196100BFA1
:1052900070BD0000640000203C00002018ED00E01C
:1052A00000E400E010B586B0044601211020FEF7AE
:1052B00003FD01212020FEF7FFFC01210805FEF778
:1052C000DBFC4FF48050ADF8140018208DF8170067
:1052D00005A92048FCF75EFB0420ADF814008DF80A
:1052E000170005A91C48FCF755FB01210805FEF72E
:1052F000D3FC00214FF48010FEF7CEFC0194002077
:10530000ADF80800ADF80A00ADF80C00ADF81000DB
:105310000C20ADF80E0001A91048FFF70BFC35205A
:105320008DF8000003208DF801008DF802000120A7
:105330008DF803006846FEF77DF8012240F2255102
:105340000648FFF7D2FB01210448FFF78BFB06B0AC
:1053500010BD00000010014000140140005000404A
:1053600010B586B0044601210420FEF7A5FC0121FA
:105370008803FEF7A1FC4FF40070ADF81400032081
:105380008DF8160018208DF8170005A91F48FCF7A6
:1053900001FB4FF48060ADF8140004208DF8170075
:1053A00005A91A48FCF7F6FA01940020ADF80800A8
:1053B000ADF80A00ADF80C00ADF810000C20ADF807
:1053C0000E0001A91248FFF7B5FB25208DF800005B
:1053D00003208DF801008DF8020001208DF80300F4
:1053E0006846FEF727F8012240F225510848FFF7EA
:1053F0007CFB012240F224410548FFF776FB0121A6
:105400000348FFF72FFB06B010BD00000008014065
:105410000038014010B586B0044601210420FEF793
:105420004BFC01214804FEF727FC18208DF81700DB
:105430000420ADF8140003208DF8160005A92148BA
:10544000FCF7A8FA0820ADF8140004208DF8170026
:1054500005A91C48FCF79EFA01214804FEF71CFC34
:1054600000214FF40030FEF717FC01940020ADF846
:1054700010000C20ADF80E000020ADF80C00ADF8C7
:105480000A00ADF8080001A90F48FFF753FB2620DA
:105490008DF8000001208DF8030003208DF8010035
:1054A0008DF802006846FDF7C5FF012240F2255144
:1054B0000548FFF71AFB01210348FFF7D3FA06B0AE
:1054C00010BD0000000801400044004010B586B047
:1054D000044601211020FEF7EFFB0121C804FEF76E
:1054E000CBFB4FF48060ADF8140018208DF8170046
:1054F00005A92148FCF74EFA4FF40060ADF81400FE
:1055000004208DF8170005A91B48FCF743FA012178
:10551000C804FEF7C1FB00214FF40020FEF7BCFBDE
:1055200001940020ADF80800ADF80A00ADF80C00B9
:10553000ADF810000C20ADF80E0001A90F48FFF7E0
:10554000F9FA34208DF8000003208DF801008DF861
:10555000020001208DF803006846FDF76BFF012271
:1055600040F225510548FFF7C0FA01210348FFF733
:1055700079FA06B010BD000000100140004C004058
:1055800010B5002404E02046FFF710FC601CC4B2F4
:10559000062CF8DB10BD0000012803D10121044ACC
:1055A000116004E0022802D10121024A1160704713
:1055B0009481214294012342012803D10021044A0D
:1055C000116004E0022802D10021024A11607047F4
:1055D0009481214294012342012806D10749096898
:1055E00081F02001054A116007E0022805D1044935
:1055F000096881F02001024A116070470C0C0140DB
:105600000C1801400649C97A054A50541146C97A16
:10561000491CC9B2D1720A2901DB0021D17270473D
:10562000F4000020012803D100210C4A116013E08E
:10563000022804D10021094A121D11600CE0032840
:1056400004D10021054A0832116005E0042803D185
:105650000021024A0C321160704700008001224292
:10566000012803D101210C4A116013E0022804D162
:105670000121094A121D11600CE0032804D1012107
:10568000054A0832116005E0042803D10121024ACD
:105690000C321160704700008001224210B5FFF704
:1056A0006FFF10BD7047416851B14168491E4160AC
:1056B00031B9012141700178012901D1816841602E
:1056C0007047000070B504460D46042C01DB00BF96
:1056D000FEE70120FFF7ECFA04EB44000C4901EB74
:1056E0008000456004EB440001EB800085600020F1
:1056F00004EB4401064A02EB81014870012004EBEF
:10570000440102F821000020FFF7D2FA70BD00002A
:105710006400002070B504460D46042C01DB00BF78
:10572000FEE70120FFF7C4FA04EB44000B4901EB4C
:105730008000456004EB440001EB800085600020A0
:1057400004EB4401054A02EB8101487004EB44017B
:1057500002F82100FFF7ACFA70BD000064000020E1
:1057600010B50446042C01DB00BFFEE70120FFF763
:105770009FFA002004EB4401074A02EB81014860D4
:1057800004EB440102EB8101487004EB440102F890
:105790002100FFF78DFA10BD640000202DE9F043D1
:1057A00089B0FBF7ADFE2A490880FCF7C9F9054628
:1057B00000F004FF0446274900F03EFE2649086039
:1057C000FEF714F925490880FEF71EFB18B1FFF714
:1057D000DBFBFFF70FFD22480078012802D10020F3
:1057E0001F4908701F480078012802D100201D4978
:1057F00008701D480078312826D11748006800F04D
:10580000E3FD04460D461948006800F0DDFD06463C
:105810000F461748006800F0D7FD804689461548B6
:105820000078154909780D4A1288CDE90445CDE97B
:10583000062108900648008842464B46CDE900679D
:1058400002900EA0FAF7FAFC09B0BDE8F083000060
:10585000000000200000C8420400002008000020D2
:10586000290000202A0000200E0000203400002023
:10587000300000200C0000200D00002030312C25CD
:105880002E31662C252E31662C25642C252E316672
:105890002C25642C25642C256400000010B50446DA
:1058A0002046FFF737FA10BD10B504462046FFF733
:1058B00053FA10BD10B52148007800F07FFE044671
:1058C0001F480168204600F08DFE03D20120FFF73B
:1058D000E3FA02E00120FFF7CFFA1A480078012826
:1058E00009D10C2018490870FFF7F4F94FF4FA6158
:1058F0000120FFF70FFF0120FFF7F2F938B1002078
:10590000114908700120FFF72BFFFFF7DDF90F4861
:105910000078012807D10C200D4908704FF4FA6176
:105920000220FFF7F7FE0220FFF7DAF928B1002086
:10593000074908700120FFF713FF10BD0A0000207F
:10594000300000202A0000200D0000202900002047
:105950000C00002010B523480078313807283FD2CA
:10596000DFE800F00408111A232C350031201E490D
:10597000087035E01D4801781A48FFF74FF83020CD
:10598000194908702CE0194801781648FFF746F8C5
:1059900030201549087023E0144801781148FFF7BA
:1059A0003DF83020104908701AE0104801780D4881
:1059B000FFF734F830200C49087011E00B480178EB
:1059C0000848FFF72BF830200749087008E007481F
:1059D00001780448FFF722F830200349087000BF1F
:1059E00000BF10BD010100200E0000202200002099
:1059F00000BF054A128802F04002002AF9D0C2B264
:105A0000014B1B1D1A8070470038014002460020E0
:105A1000012104E0535C0344D8B24B1CD9B20829DD
:105A2000F8DBC0F1FF00431CD8B2704702460020EB
:105A3000012104E0535C0344D8B24B1CD9B20829BD
:105A4000F8DBC0F1FF00431CD8B27047FFF74FFAF4
:105A5000FEF73AF8FEF70AF84FF46140FFF7DAFC78
:105A60004FF41650FFF732FD4FF41650FFF71AFCB3
:105A7000FFF7BAFAFFF788FBFFF762FAFFF784FA3D
:105A8000FFF7B8FBFEF74EFE1F201F490880FDF709
:105A900013FD4FF4FA710020FFF714FE0BE04FF4F2
:105AA0007A70FFF7FBFE1948006808B9012000E092
:105AB000002016490860FFF747FB0028EFD121E0DE
:105AC000FFF714FA1248007801280AD1FBF756FDB7
:105AD000FFF740FF0F4801780F48FEF79FFFFFF7E1
