:020000040800F2
:10000000F80B0020B5010008891E0008BD1A000881
:10001000851E000885140008292B00080000000038
:100020000000000000000000000000007D25000826
:1000300009160008000000002D20000869260008AD
:10004000452B0008CF010008CF010008CF010008B0
:10005000CF010008CF010008CF010008CF01000840
:10006000CF01000881160008CF010008CF01000869
:10007000CF010008CF010008CF010008CF01000820
:10008000CF010008CF010008CF010008CF01000810
:10009000CF010008CF010008CF010008CF01000800
:1000A000CF010008CF010008CF010008CF010008F0
:1000B000CF010008CF010008CF010008CF010008E0
:1000C000CF010008CF010008CF010008CF010008D0
:1000D000CF01000855270008B1270008852800082F
:1000E0000D160008CF010008CF01000800F002F84B
:1000F00000F050F80AA090E8000C82448344AAF172
:100100000107DA4501D100F045F8AFF2090EBAE86F
:100110000F0013F0010F18BFFB1A43F0010318473B
:100120000844000028440000103A24BF78C878C171
:10013000FAD8520724BF30C830C144BF04680C60ED
:10014000704700000023002400250026103A28BF35
:1001500078C1FBD8520728BF30C148BF0B60704739
:10016000662904F04981642900F0A280782900F012
:10017000DB80732900F01E84002070471FB500F05B
:100180002FFC04000020002103F034FBE0601FBDC1
:1001900010B510BD00F040FD1146FFF7EFFF03F072
:1001A000F5FA00F05EFD03B4FFF7F2FF03BC02F0C6
:1001B000F9FC00000948804709480047FEE7FEE7D0
:1001C000FEE7FEE7FEE7FEE7FEE7FEE7FEE7FEE707
:1001D00004480549054A064B70470000F52600080B
:1001E000ED000008F8050020F80B0020F8070020BB
:1001F000F8070020704700000FB4044910B503AAA7
:10020000029800F0DBFB10BC5DF814FB240000201A
:1002100070B5044685690068C10601D5302600E046
:100220002026C00707D070BDD4E901213046904791
:10023000206A401C20626D1EF6D570BD70B5044664
:1002400085690078C00707D170BDD4E9012120205D
:100250009047206A401C20626D1EF6D570BD70B5B7
:100260000C460546012A05D02878800600D5EA69A3
:10027000002302E0012305E05B1C934202D2E05C14
:100280000028F9D1A869E618C01AA861286A18449C
:1002900028622846FFF7BCFF04E0D5E9012114F8E5
:1002A000010B9047B442F8D32846FFF7C7FF70BD53
:1002B0002DE9F0410646002410687529314616A53F
:1002C00010D0AFF30080002802DA404213A507E007
:1002D00031688A0701D512A502E0490704D511A5A6
:1002E000012401E0AFF3008000210A2206F1240777
:1002F00009E0B0FBF2FCB0FBF2F302FB1C00303073
:1003000078541846491C0028F3D123462A46304623
:10031000BDE8F04100F0D4B8000000002D0000005E
:100320002B0000002000000070B504460D46214659
:100330001068AFF300802188090502D50F4A7A447E
:1003400002E00E4A7A440E32002104F1240305E053
:1003500000F00F060009965D5E54491C0028F7D195
:1003600020780023000704D5702D02D009B10223A4
:1003700011322046BDE8704000F0A2B8CC40000029
:100380002DE9F05F894604464FF0000ADFF824B1FA
:10039000FB44C0F820A02046E168884700287DD0B3
:1003A000252806D0D4E901219047206A401C20620C
:1003B000F1E700255F462046E16888472028064689
:1003C00007DB312E05D2B81910F8200C08B105430F
:1003D000F1E7A80701D525F00405C4F81CA0002703
:1003E000C4F818A02A2E09D0304602F0D4FB38B346
:1003F00004EB8708303EC8F8186019E059F8041B70
:10040000204604EB87029161E1688847012F064688
:1004100018D1E069002820DA25F020051DE0D8F881
:10042000180000EB800006EB40003038C8F81800D8
:100430002046E1688847064602F0ADFB0028EED171
:10044000012F0AD02E2E08D12046E16888477F1C54
:100450000646022F45F02005C4DBA069002803DA18
:10046000404245F00105A061E80701D025F01005E4
:10047000A6B1A6F14100192802D8203645F400653E
:100480004A463146204625604D46FFF769FE60B179
:10049000012807D0ED1D25F0070000E007E000F17E
:1004A000080978E705F1040975E730467AE7206A1C
:1004B000BDE8F09FA240000070477047704770474A
:1004C0002DE9F0470D4699469246044600F124086E
:1004D0000168880604D5E06921F01001216000E080
:1004E0000120A84201DD471B00E00027A1697A191D
:1004F00002EB0900081AA0612078C00602D4204649
:10050000FFF786FE002608E0D4E901211AF806006C
:100510009047206A401C761C20624E45F4DB207810
:10052000C0060AD52046FFF773FE06E0D4E9012194
:1005300030209047206A401C2062381EA7F1010736
:10054000F4DC07E0D4E9012118F805009047206A9F
:10055000401C2062281EA5F10105F3DC2046FFF7B0
:100560006DFE2078000602D50220BDE8F08701204C
:10057000FBE770472DE9FF4F0C461E464FF0FF3753
:100580008BB0D2E90001DDF860800A908A46C1F3A1
:100590000A5505B93D46002108464FF00000BAF162
:1005A000000F00F4400005DA00EB80004FF440013A
:1005B00001EA50004FEA9059B9F1010F00DDB94648
:1005C0000A9850EA4A000ED044F61050A5F2FF35C2
:1005D00045432F14B8F1000F1ED07542291E1EDDB1
:1005E000C9F100021CE0B8F1010F4FF0000001D08A
:1005F000302103E0F24305E02154401CB042FBDB14
:1006000030460022002121540B99C1F80880C1E92D
:1006100000200FB0BDE8F08FBD1B6D1CDEE74A4621
:1006200000DA694206A800F07DFA06AB93E80700FD
:1006300003AB83E8070050460A9900F05BFB8DE8A6
:100640000700A0F500501F3800900398002D0ADD28
:1006500042F21F014A460844002303A9039068465A
:1006600000F0C4FD09E0A0F500504A461F38002301
:1006700003A90390684600F0CEFD8DE80700000452
:10068000000C03D04FF0FF30410800E01046B8F1F5
:10069000000F03D00022009215461EE0751E05D4FF
:1006A00000F0A2F9303262556D1EF9D5B346012231
:1006B000084302D000227F1C04E02078302801D1BA
:1006C00000227F1E002A099784D01DE0112D07DA31
:1006D00000F08AF9303262556D1C50EA0102F5D102
:1006E000084302D00098C8B10EE00021681E05E062
:1006F000235C625C63542254401E491C8142F7DB38
:10070000AB46A81B401E0990002004F80B000B9874
:10071000099AC0F80880C0E9002B7AE711264FF04B
:10072000000857E72DE9F04F88460446D21D22F015
:10073000070191B0D1E90001CDE90A0102F014FAF4
:1007400002460B98C00F01D02D2007E020688107DA
:1007500001D52B2002E0202101EAC000032A0990E4
:1007600001D0072A05DB03464146204600F09AF9EE
:100770000BE12078800601D5E06900E00620B8F1A1
:10078000650F814606D0B8F1660F18D0B8F1670F33
:1007900070D131E00020B9F1110F009001DB11237D
:1007A00001E009F101030AAA01A90CA8FFF7E2FE82
:1007B000DDE90C70002609F10105834647E00120C0
:1007C0004B4600904FF000470AAA01A90CA8FFF77A
:1007D000D1FEDDE90DB00C995D46002610B909F196
:1007E00001000D18B9EB050003D4C0F1FF3609F183
:1007F0000105A5EB09002BE0B9F1010F01DA4FF07B
:1008000001090020B9F1110F0090484601DD1123C4
:1008100000E003460AAA01A90CA8FFF7ABFEDDE938
:100820000C704D4600268346207800070AD4AB455D
:1008300000DA5D4601A8012D04DD411911F8011C03
:10084000302907D04F4502DA17F1040F04DA0120EE
:1008500082460FE06D1EEEE7002F02DCED1B3E44EA
:1008600003E0781CA84200DD7D1CB81B00F1010AE2
:100870004FF000472078000703D4AA4501DB4FF072
:10088000FF3A0021B7F1004F0DF143088DF84310F6
:1008900024D002202B23002F01DA7F422D230A21AE
:1008A000021EA0F1010000DC5FB197FBF1FC97FB99
:1008B000F1F201FB1C7C17460CF1300C08F801CD5D
:1008C000EEE7A8F1010003702188090501D5452153
:1008D00000E06521A0F1010800F8011C09980FA9AA
:1008E000A1EB0807FF1D00B10120411901EBEA70DF
:1008F000A1693844081A401EA0612078C00602D4BD
:100900002046FFF785FC099828B1D4E901219047DA
:10091000206A401C20622078C00622D52046FFF7BE
:1009200077FC1EE0002E04DBB34502DD01A8805DEC
:1009300000E03020D4E901219047206A401C206269
:10094000761CAAF101005FEA000A0AD100F048F81B
:10095000C0680168405CD4E901219047206A401CCE
:100960002062281EA5F10105DCDC07E0D4E90121A5
:1009700018F8010B9047206A401C2062381EA7F12E
:100980000107F3DC2046FFF759FC032011B041E6D4
:1009900010B5436913B1AFF3008001E0FFF75FFCCE
:1009A000012010BD127800F124010A7000224A7063
:1009B0000122EDE711684FF0FF32E9E7074B70B510
:1009C0000D467B4400F05BF80446284600F01CF915
:1009D00010B14FF0FF3070BD204670BD6B2D000090
:1009E00000487047B805002030B5B0F10A024FEA60
:1009F000900E71F100034EEA817EB0EB0E0061EBC8
:100A000091014FEA101E4EEA017E10EB0E0041EB01
:100A100011114FEA102E4EEA016E10EB0E0041EB61
:100A200011214FEA104E4EEA014E10EB0E0041EB41
:100A30001141401841F100014FEAD00040EA4170F5
:100A40004FEAD10110EB80054FEA810444EA90742B
:100A500044EB01046D1944EB0404521BA3414FF015
:100A6000000348BF0A3200D530BD401C41F10001EF
:100A700030BD000001694A1C02610878704700B56A
:100A80008FB0CDE901310021059105497944CDE9C7
:100A9000031011466846FFF773FC0FB000BD00005D
:100AA000E5FFFFFF2DE9F0411F46044603260168DC
:100AB000072A01F4006004DB08B116A505E016A5BD
:100AC00003E008B115A500E015A521F01000206095
:100AD000A069C01EA0610FB1401EA0612046FFF7B3
:100AE00097FB4FB1D4E9012138469047206A401C5A
:100AF0002062C01C206206E0206AFAE7D4E90121E6
:100B000015F8010B9047761EF8D22046FFF796FBAA
:100B1000BDE8F0814E414E006E616E00494E4600C8
:100B2000696E66002DE9F047814616468AB0354861
:100B300078440DC88DE80D0032487844801C03AC21
:100B40000DC884E80D0041F69B300844372190FB26
:100B5000F1F290FBF1F5A5F1800501FB12041B3CBD
:100B600002D56442012000E00020DFF898A0804612
:100B70000027FA44AAF1BE0A0EE0E0070AD0324686
:100B8000684607EB470101230AEB810100F043FBB4
:100B90008DE8070064107F1C002CEED1194F7F44B4
:100BA000AE3F19E0E80715D007EB04100DF1180A65
:100BB00090E80E008AE80E00C068F04201D1981952
:100BC00008903246012306A903A800F024FB03ABDA
:100BD00083E807006D10641C002DE3D14FF0010382
:100BE00032466946B8F1000F03A802D000F0FEFAC1
:100BF00001E000F010FBC9E90001C9F808200AB0C3
:100C0000BDE8F08790390000007B00F0800070475D
:100C100000487047980500207546FFF7F9FFAE467B
:100C200005006946534620F00700854618B020B5F8
:100C3000FFF7CEFABDE820404FF000064FF0000766
:100C40004FF000084FF0000B21F00701AC46ACE874
:100C5000C009ACE8C009ACE8C009ACE8C0098D46E1
:100C6000704710B50446AFF300802046BDE8104041
:100C7000FFF799BA4FF0013C50F8042B51F8043BB0
:100C80009A4221D1A2EB0C03934313EACC1317D160
:100C900050F8042B51F8043B9A4215D1A2EB0C03F7
:100CA000934313EACC130BD150F8042B51F8043BB7
:100CB0009A4209D1A2EB0C03934313EACC13DBD085
:100CC0004FF00000704700BFD01A01BAB1FA81F1AD
:100CD00001F0180122FA01F0CB40C1F12001DBB292
:100CE000C0B2C01A2CFA01F3D11A914311EAC31110
:100CF000E6D170475FEA400C08BF91F0000F4FEA61
:100D00008C234FEAC12243EA51514FEA1C5018BFCD
:100D100000F5F0404FEA300018BF41F000415FEAB3
:100D20006C5C00F02980BCF1FF3F08BF40F08040C0
:100D30007047130C06BF12044FF0100C4FF0000C5C
:100D4000130E04BF12020CF1080C130F04BF1201A2
:100D50000CF1040C930F04BF92000CF1020CD30FA2
:100D600004BF52000CF1010C11464FF00002A0F13B
:100D70001F00A0EB0C00704711F0004F08BF704738
:100D800031F000413FF4D5AF0B0C06BF09044FF022
:100D9000100C4FF0000C0B0E04BF09020CF1080CF4
:100DA0000B0F04BF09010CF1040C8B0F04BF890069
:100DB0000CF1020CCB0F04BF49000CF1010CCCF17B
:100DC0002003A0EB0C0022FA03F302FA0CF241EA32
:100DD000030100F10100704720F07F4C80EA03001E
:100DE00023F07F47ACEB070303F57C5300F0004092
:100DF00003F1FF032DE980494FEA154B09B44FEA8F
:100E0000144325EA0B4E24EA03480FF2042606EBAE
:100E1000132749083E785FEA320203FB0667C7F5ED
:100E2000000707FB06F64FEA54374FEAD64606F1AD
:100E3000020607FB066CCCF1005C4FEA1C472CEA6B
:100E4000074C07FB06F40CFB06F504EB15464FEACE
:100E5000961634BF00204FF000404FEAD13706FB12
:100E600007FC4FEA1C4C0CFB0BF7D21B03FB0CF7E7
:100E700061EB07010CFB0EF7B0EB074072EB17427A
:100E80000CFB08F734BFA2EB0742B2EB074261EB61
:100E900017414FEA0C444FEA910706FB07FC4FEA63
:100EA0001C4C0CFB0BF7B0EBC74072EB573203FB4B
:100EB0000CF734BFA2EBC742B2EBC74261EB57312C
:100EC0000CFB0EF7B0EBC70072EB57720CFB08F788
:100ED00034BFA2EBC702B2EBC70261EB5771039FAD
:100EE0004FEA816141EA921104EBCC044FEAD13719
:100EF0004FEA826206FB07FC42EA90124FEA8060EA
:100F00004FEA1C4C0CFB0BF7D21B03FB0CF761EBFD
:100F100007010CFB0EF7B0EB074072EB17420CFB1E
:100F200008F734BFA2EB0742B2EB074261EB17416F
:100F30004FEA8C554FEA910704EB9C2406FB07FC13
:100F40004FEA1C4C0CFB0BF7B0EBC74072EB57326F
:100F500003FB0CF734BFA2EBC742B2EBC74261EB15
:100F600057310CFB0EF7B0EBC70072EB57720CFB5E
:100F700008F734BFA2EBC702B2EBC70261EB5771AF
:100F800015EB4C254FEA816141EA92114FEA8262EA
:100F90004FEAD13742EA901206FB07FC44F1000405
:100FA0004FEA80604FEA1C4C0CFB0BF7D21B03FB93
:100FB0000CF761EB07010CFB0EF7B0EB074072EB8F
:100FC00017420CFB08F734BFA2EB0742B2EB074213
:100FD00061EB174115EB1C154FEA813141EA924153
:100FE0004FEA823242EA90424FEA80304FEA0C7672
:100FF00044F1000448EA03434EEA0B484FF0000E68
:10100000B2EB080C71EB030724BF624639464EEB86
:101010000E0E4FF0000B0018524149414BEB0B0BE9
:10102000B2EB080C71EB03077BF1000B24BF6246A7
:1010300039464EEB0E0E4FF0000B0018524149415D
:101040004BEB0B0BB2EB080C71EB03077BF1000BC6
:1010500024BF624639464EEB0E0E51EA020718BF16
:1010600046F0010616EB0E7655F1000254F1000130
:1010700003D5BDE88901BDE80088BDE88901BDE868
:101080000048B619524141EB0101A3F10103704739
:1010900080807F7E7D7C7B7A7978777676757473B5
:1010A000727171706F6E6E6D6C6C6B6A6A69686874
:1010B000676666656464636362616160605F5F5E0A
:1010C0005E5D5D5C5C5B5B5A5A5959585857575680
:1010D00056555555545453535252525151505050E5
:1010E0004F4F4F4E4E4D4D4D4C4C4C4B4B4B4A4A37
:1010F0004A4949494848484747474746464645457B
:1011000045444444444343434342424242414141B3
:10111000002B9C4630D477002BD01CB54FEA370704
:1011200003B44FF010004FF01001BAF1000F06D0D9
:10113000BCF1000FDCBF40F0080040F008014FF0A8
:1011400000000FBCBDE810400BF1010BBBF1010F1B
:1011500008BF5FEA170722BF12F1010211F1010176
:101160004FF0004143F1000300F0004043EA00006B
:101170007047F9D35708D0E746EA064613F1400F07
:101180004FEA16461FDD13F1200FDFBF16430A4654
:10119000002120335B42BED0C3F1200746EA064659
:1011A00002FA07F74FEA164646EA0706C3F1200798
:1011B00022FA03F201FA07F721FA03F14FF00003D4
:1011C00042EA0702A7E746EA020646EA06464FEA6F
:1011D000164646EA0106BCBF46EA0646360C4FF004
:1011E00000034FF000024FF0000194E72DE9804C1E
:1011F0009A46934670B491E8380007C831EA400C2B
:1012000048BF34EA430C03D5FFF7E6FDFFF780FF44
:10121000F0BCBDE8008C2DE9804C9A46934670B432
:1012200091E8380007C810F0804F08BF13F0804FD6
:1012300003D100F005F8FFF76BFFF0BCBDE8008CB0
:1012400020F07F4780EA030023F07F4C07EB0C037C
:10125000A3F57C5300F00040A3F1FE0392F0000FD1
:1012600000F0B38095F0000F00F077802DE9014980
:101270004FEA11404FEA144621EA004800FB06FC01
:1012800024EA064708FB06F607FB08F800FB07F709
:1012900018EB06484CEB164C4FEA124B18EB07487C
:1012A0004FEA15464CEB174022EA0B4E0BFB06FCAF
:1012B00025EA06470EFB06F607FB0EFE0BFB07F7BB
:1012C0001EEB064E4CEB164C4FF000061EEB074E85
:1012D0004CEB174B18EB0B0840F1000018EB0E0B12
:1012E00058EB000840F100008F1A4FF000013CBF9E
:1012F000C943661B14BFB5EB040C00213CBFC943B6
:10130000F61B4FEA17444EEA8E0E27EA04454FEAD1
:101310001C4704FB07622CEA074C05FB07F70CFB94
:1013200005F604FB0CFC16EB074642EB174216EBE6
:101330000C4642EB1C421BEB060658EB02024141F5
:1013400046EA9E0601D5BDE80189B619524141EB36
:101350000101A3F10103BDE801894FEA14454FEAF9
:10136000114724EA054621EA074C05FB07F406FB72
:1013700007F70CFB06F105FB0CFC11EB074144EBF6
:1013800017444FEA124711EB0C4144EB1C4422EA8C
:10139000074C05FB07F206FB07F70CFB06F605FBFF
:1013A0000CFC16EB074642EB174216EB0C4642EBE1
:1013B0001C456A1854F1000148BF7047B6195241E4
:1013C00041EB0101A3F10103704795F0000F37D005
:1013D0004FEA11424FEA144721EA024624EA074C39
:1013E00002FB07F106FB07F70CFB06F402FB0CFC03
:1013F00014EB074441EB17414FEA154714EB0C443B
:1014000041EB1C4125EA074C02FB07F506FB07F7F9
:101410000CFB06F602FB0CFC16EB074645EB1745EA
:1014200016EB0C4645EB1C42121951F1000148BF66
:101430007047B619524141EB0101A3F10103704716
:101440004FEA14454FEA114724EA054621EA074CC2
:1014500005FB07F106FB07F70CFB06F24FF0000651
:1014600005FB0CFC12EB074241EB174112EB0C425F
:1014700051EB1C4148BF7047921841EB0101A3F1A9
:101480000103704700BFFEE738B50024002000903C
:101490000921134801F0D2F9142002F03DF9694600
:1014A000104801F0A5F99DF80000092812D10D4857
:1014B00002F04CF90B49097A88420BD1094884782B
:1014C000C07800EB042084B20020009000F00CF8FB
:1014D000204638BD4FF6FF7400F006F82046F8E7C6
:1014E000FC43000841050020002000BF04E000216B
:1014F000034A1154411CC8B20A28F8DB70470000A7
:101500004105002010B53F4800784A2827D13D48C2
:101510004078312806D032280BD0332810D0342818
:101520001CD114E0012001F073FF022001F070FFD4
:1015300014E0012001F04EFF022001F04BFF0DE00E
:10154000032001F065FF042001F062FF06E00320A4
:1015500001F040FF042001F03DFF00BF00BF29481B
:10156000007846281BD127484078312806D03228F9
:1015700008D033280AD0342810D10BE0012001F024
:10158000FBFB0BE0012001F0E7FB07E0022001F08C
:10159000F3FB03E0022001F0DFFB00BF00BF1948AE
:1015A00000784C281BD117484078312806D03228C3
:1015B00008D033280CD0342810D10CE0022001F0E0
:1015C000EBFE0BE0022001F0D9FE01F0EDFA05E0A0
:1015D00001F0F0FA02E001F0E7FA00BF00BF0948AD
:1015E000007842280DD107484078312802D03228AF
:1015F00006D102E001F0DEFA02E001F0D5FA00BF08
:1016000000BF10BD010100207047000010B54FF46D
:10161000006000F04FF848B11548006810B901208B
:10162000144908704FF4006000F03EF84FF4805009
:1016300000F040F850B10E48001D006810B90120BC
:101640000D4908704FF4805000F02EF84FF4004020
:1016500000F030F850B106481030006810B9012091
:10166000064908704FF4004000F01EF810BD00005D
:101670002C012142280000202A0000202C000020FC
:1016800010B5082000F016F840B1054800680128A0
:1016900001D104490870082000F006F810BD0000D0
:1016A0000C81214229000020014908607047000098
:1016B00014040140014600200022074B1B6803EA86
:1016C0000102054B14331B680B4013B10AB1012012
:1016D00000E0002070470000000401400021234981
:1016E0008279002A3AD00A46126803689A430B4668
:1016F0001A600A1D126803689A430B1D1A6002796A
:1017000011440A6803681A430A60184A08321268CA
:1017100003689A43154B08331A601A1D1268036850
:101720009A43124B0C331A604279102A0ED11A1FB9
:10173000126803681A430D4B08331A601A1D1268A9
:1017400003681A43094B0C331A600DE007494279CC
:1017500011440A6803681A430A6005E002791144DB
:101760000A6803689A430A60704700000004014059
:101770000EB50121454800F037F90121084600F077
:1017800069FD0B21002000F083F84FF40060019008
:1017900000208DF808000C208DF8090001208DF83C
:1017A0000A0001A8FFF79AFF28208DF80000022008
:1017B0008DF801008DF8020001208DF803006846C5
:1017C00000F064FB0321012000F062F80820019082
:1017D00000208DF8080008208DF8090001208DF800
:1017E0000A0001A8FFF77AFF09208DF80000022007
:1017F0008DF801008DF8020001208DF80300684685
:1018000000F044FB0C21002000F042F84FF480501F
:10181000019000208DF808000C208DF809000120AF
:101820008DF80A0001A8FFF759FF28208DF8000065
:1018300002208DF801008DF8020001208DF80300D0
:10184000684600F023FB0F21002000F021F84FF440
:101850000040019000208DF808000C208DF8090050
:1018600001208DF80A0001A8FFF738FF28208DF825
:10187000000002208DF801008DF8020001208DF893
:101880000300684600F002FB0EBD000000023000BD
:1018900030B500228B071C0F0F2303FA04F20B4B09
:1018A0008C1053F824309343084C8D1044F82530A5
:1018B00023468C1053F824308C07240F00FA04F4CC
:1018C0002343024C8D1044F8253030BD0800014000
:1018D0002DE9F041024600250026002000230024C7
:1018E000002791F803C00CF00F0591F803C00CF02D
:1018F000100CBCF1000F03D091F802C04CEA0505B2
:1019000091F800C0BCF1000F31D0146800202BE02A
:101910004FF0010C0CFA00F3B1F800C00CEA03061A
:101920009E4220D183004FF00F0C0CFA03F7BC430A
:1019300005FA03FC4CEA040491F803C0BCF1280F3B
:1019400006D14FF0010C0CFA00FCC2F814C00AE0FA
:1019500091F803C0BCF1480F05D14FF0010C0CFA0F
:1019600000FCC2F810C0401C0828D1D31460B1F8A4
:1019700000C0BCF1FF0F34DD546800202EE000F100
:10198000080C4FF0010808FA0CF3B1F800C00CEA9B
:1019900003069E4221D183004FF00F0C0CFA03F78F
:1019A000BC4305FA03FC4CEA040491F803C0BCF103
:1019B000280F05D100F1080C08FA0CF8C2F81480C1
:1019C00091F803C0BCF1480F07D100F1080C4FF0AB
:1019D000010808FA0CF8C2F81080401C0828CED381
:1019E0005460BDE8F0810000F0B50A4600230024F1
:1019F0000021002500F00046B6F1004F02D11D4E37
:101A0000F16901E01B4E7168C0F3034583B200F435
:101A10004016B6F5401F08D121F07061154E76686A
:101A200026F07066134F7E6012E000F48016B6F563
:101A3000801F06D1032606FA05F4A14341F0706128
:101A400006E0460D360103FA06F6B14341F0706137
:101A500022B1460D360103FA06F6314300F0004686
:101A6000B6F1004F02D1034EF16101E0014E716009
:101A7000F0BD0000000001400161704710B5002476
:101A8000002000F04CFA0446210B01208840C4F3EA
:101A90000B0100FB01F4204610BD10B500247F208F
:101AA00000F03DFA0446204610BD10B500247E200B
:101AB00000F035FA0446204610BD00000EE008494B
:101AC000C96881F40061064AD160002001E0411C30
:101AD00088B242F210718842F9DB00BFEFE70000E4
:101AE0000020014010B500200F4908600F48006831
:101AF00020F0F0000D4908600846006840F0300012
:101B0000086000200A49C1F88401022001F00AFEA1
:101B1000012005490860022001F004FE002004496C
:101B2000C1F8800110BD000080812142000C0140FD
:101B30000080214210B500200F4908600F4800685E
:101B400020F0F0000D4908600846006840F03000C1
:101B5000086001200A49C1F88401022001F0E2FD79
:101B6000012005490860022001F0DCFD0020044945
:101B7000C1F8800110BD000080812142000C0140AD
:101B80000080214270B5054600241748006820F007
:101B9000F000154908600846006840F080000860C1
:101BA000002616E0002011490860022001F0BAFD6D
:101BB00001200F49C1F880016006040E0B487C38F3
:101BC000006808B1601CC4B2012001F0ABFD701CBC
:101BD000C6B2082EE6DB15B9FFF7ACFF01E0FFF750
:101BE00081FF204670BD0000000C01408081214231
:101BF0000080214270B504461848006820F0F000CB
:101C0000164908600846006840F03000086000206F
:101C10001349086000251EE0E00920B101201049A9
:101C2000091D086003E000200D49091D08606006D9
:101C3000040E022001F076FD01200949086002200F
:101C400001F070FD00200749C1F88001022001F079
:101C500069FD681CC5B2082DDEDB70BD000C0140BB
:101C6000808121420080214210B50F48006820F099
:101C7000F0000D4908600846006840F03000086038
:101C800001200A4908600A49C1F88001042001F0D6
:101C900049FD002005490860042001F043FD0020B3
:101CA0000349C1F8800110BD000C0140848121422C
:101CB0000080214210B50F48006820F0F0000D4967
:101CC00008600846006840F03000086000200A49BB
:101CD00008600A49C1F88401042001F023FD0120B5
:101CE000054908600549C1F88401042001F01AFD86
:101CF00010BD0000000C0140808121420080214283
:101D000010B500241448006820F0F0001249086063
:101D10000846006840F08000086001200F49086014
:101D200001F000FD01200E49C1F8800101F0FAFC2C
:101D300007E0601CC4B2FA2C03DDFFF7BBFF0120F3
:101D400010BD0648803800680028F2D10349091FF9
:101D5000086000BFF4E70000000C014084812142CC
:101D6000008021420948006801280CD10848006819
:101D700048B10748001F006828B1054808380068C6
:101D800008B1012070470020FCE70000000121425B
:101D9000100123420948006801280CD00848006857
:101DA00048B90748001F006828B10548083800688E
:101DB00008B1012070470020FCE70000000121422B
:101DC000100123420948006801280CD00848006827
:101DD00048B10748001F006828B90548083800685E
:101DE00008B1012070470020FCE7000000012142FB
:101DF000100123420948006801280CD008480068F7
:101E000048B10748001F006828B105480838006835
:101E100008B9012070470020FCE7000000012142C2
:101E2000100123420948006801280CD108480068C5
:101E300048B90748001F006828B1054808380068FD
:101E400008B1012070470020FCE70000000121429A
:101E5000100123420948006801280CD00848006896
:101E600048B90748001F006828B9054808380068C5
:101E700008B1012070470020FCE70000000121426A
:101E80001001234200BFFEE77047000070B500213B
:101E900000230F22C47804B3154C246804F4E064D2
:101EA000C4F5E064210AC1F10403CA40447804FA8D
:101EB00003F184781440214309010E4C0678A155A2
:101EC000047804F01F050124AC4005786D11AD00C5
:101ED00005F1E025C5F8004109E0047804F01F058C
:101EE0000124AC40044D0678761145F8264070BDBB
:101EF0000CED00E000E400E080E100E00249014375
:101F0000024A1160704700000000FA050CED00E085
:101F100010B54CF21041012000F02DF810BD2DE954
:101F2000F041054600260027FFF79EFE8A20FFF7B6
:101F300061FEFFF7E5FE2846FFF75CFEFFF7E0FED7
:101F4000FFF7B8FEFFF790FE8B20FFF753FEFFF779
:101F5000D7FE0120FFF716FE06460020FFF712FE0F
:101F60000746FFF7A7FE052001F0D6FB34023C43ED
:101F70002046BDE8F08170B505460C46FFF774FEBB
:101F80008A20FFF737FEFFF7BBFE2846FFF732FE39
:101F9000FFF7B6FE2012FFF72DFEFFF7B1FEE0B20D
:101FA000FFF728FEFFF7ACFEFFF784FE70BD0000D0
:101FB00038B50024002000900921134800F0A8FC47
:101FC000142001F0A9FB6946104800F07BFC9DF845
:101FD0000000092812D10D4801F0C8FB0B49097A0D
:101FE00088420BD109488478C07800EB042084B281
:101FF0000020009000F00CF8204638BD4FF6FF742A
:1020000000F006F82046F8E7054400084B050020DC
:10201000002000BF04E00021034A1154411CC8B253
:102020000A28F8DB704700004B05002070470000CD
:1020300010B506A0FEF7E0F807A0FEF7DDF810489F
:10204000FEF7DAF80FA0FEF7D7F810BDB2D9D7F730
:10205000CCE1CABE3A0D0A00312EB1BEB3CCD0F2EB
:10206000D6D0A3ACC3BF203120C3EB2044533020D3
:10207000BAECB5C6B7ADD7AAD2BBB4CE0D0A000034
:10208000DC4400080D0A0D0A0000000070B5154878
:102090000468001D0568001D066823462A4631466F
:1020A00011A0FEF7A9F81EA0FEF7A6F81DA0FEF7E6
:1020B000A3F82CA133A0FEF79FF837A137A0FEF7B5
:1020C0009BF83BA13DA0FEF797F8002305220321D2
:1020D0003FA0FEF791F84DA0FEF78EF811A0FEF795
:1020E0008BF870BDE8F7FF1F0D0A435055203A20CA
:1020F00053544D3332463130335A4554362C204CEC
:102100005146503134342C20554944203D2025304F
:102110003858202530385820253038580A0D00000E
:102120000D0A00002A2A2A2A2A2A2A2A2A2A2A2AA0
:102130002A2A2A2A2A2A2A2A2A2A2A2A2A2A2A2AFF
:102140002A2A2A2A2A2A2A2A2A2A2A2A2A2A2A2AEF
:102150002A2A2A2A2A2A2A2A2A2A2A2A2A2A2A2ADF
:102160002A0D0A0057534E45505F5630312D3130FD
:10217000355F5541525420CAB5D1E9A3A8434F3227
:10218000A3A900002A20C0FDB3CCC3FBB3C6203AEC
:102190002025730D0A000000312E30002A20C0FDDA
:1021A000B3CCB0E6B1BE203A2025730D0A00000082
:1021B000323031392D30382D303200002A20B7A28C
:1021C000B2BCC8D5C6DA203A2025730D0A0000003B
:1021D0002A20B9CC20BCFE20BFE220B0E620B1BE50
:1021E000203A205625642E25642E25642028535439
:1021F0004D3332463130785F537464506572697084
:10220000685F447269766572290D0A002A200D0AFA
:102210000000000029B1064AD2690243044BDA618A
:1022200004E0034AD2698243014BDA61704700003F
:102230000010024029B1064A12690243044B1A6198
:1022400004E0034A12698243014B1A61704700009F
:102250000010024029B1064A92690243044B9A6178
:1022600004E0034A92698243014B9A61704700007F
:102270000010024030B500210022002400232D4D23
:102280006D6805F00C0121B1042905D0082923D17E
:1022900005E0294D056022E0274D05601FE0254D32
:1022A0006D6805F47012234D6D6805F480340225C5
:1022B00005EB92421CB9214D554305600BE01D4DC5
:1022C0006D6805F400351DB11C4D5543056002E0F5
:1022D000194D5543056002E0174D056000BF00BF72
:1022E000144D6D6805F0F0010909154D6B5C05682A
:1022F000DD4045600F4D6D6805F4E061090A104D41
:102300006B5C4568DD4085600A4D6D6805F4605181
:10231000C90A0B4D6B5C4568DD40C560054D6D68B5
:1023200005F44041890B074D6B5CC568B5FBF3F5BF
:10233000056130BD0010024000127A0000093D0026
:10234000500000206000002008B501210846FFF77A
:1023500081FF01211F48FFF747FB01210420FFF700
:1023600079FF4FF40060ADF8000048208DF80300BD
:1023700069461948FFF7ACFA01210820FFF76AFF08
:102380000820ADF8000028208DF8030069461348A6
:10239000FFF79EFA01210420FFF75CFF4FF4805005
:1023A000ADF8000048208DF8030069460A48FFF7A1
:1023B0008FFA01210420FFF74DFF4FF40040ADF8E4
:1023C000000048208DF8030069460348FFF780FAB3
:1023D00008BD00000002300000080140000C014070
:1023E0002DE9F04F8BB008A942F6064000F08DF8B9
:1023F0009DF8210001F046FCCDE900019DF8200088
:1024000001F040FC80460022284B01F04FFC0646BC
:10241000DDE9002301F036FA0022254BCDE9020167
:1024200001F044FC0022234BCDE9040101F0D2FA73
:1024300004460022204B01F037FD824601F0F0F9FE
:1024400007909DF8240001F01DFCCDE902019DF8E4
:10245000230001F017FC06460022144B01F026FC75
:102460008246DDE9022301F00DFA80460022134B7B
:1024700001F01CFC00220F4BCDE9040101F0AAFA87
:10248000044601F0CDF906900D49079808600D4902
:10249000069808600C490A48006801F07CFF03D2E6
:1024A00001200BB0BDE8F08F0020FAE7000070407B
:1024B00000E06540E0FFEF400080464000005940EA
:1024C00030000020340000200000014310B542F22B
:1024D000362000F001F810BD10B50446FFF7C4FB2C
:1024E0008820FFF787FBFFF70BFC2012FFF782FB2A
:1024F000FFF706FCE0B2FFF77DFBFFF701FCFFF7FB
:10250000D9FB0A2001F008F910BD2DE9F04105467C
:102510000E4600240027FFF7A7FB8820FFF76AFB81
:10252000FFF7EEFB2812FFF765FBFFF7E9FBE8B2C8
:10253000FFF760FBFFF7E4FBFFF7BCFB642001F053
:10254000EBF8FFF791FB8920FFF754FBFFF7D8FB6F
:1025500000BF0AE0052C01DA012700E00027384619
:10256000FFF710FB3055601CC4B2062CF2DBFFF7FE
:10257000A1FB642001F0D0F8BDE8F081704710B5F0
:1025800000F002F810BD00000CB500200190009092
:102590003348006840F480303149086000BF30485B
:1025A000006800F4003000900198401C01900098F1
:1025B00018B90198B0F5A06FF1D12948006800F46E
:1025C000003010B10120009001E000200090009840
:1025D000012843D12348006840F0100021490860D9
:1025E0000846006820F0030008600846006840F0D4
:1025F000020008601A484068194948600846406867
:1026000048600846406840F480604860084640687A
:1026100020F47C1048600846406840F4E8104860A8
:102620000846006840F08070086000BF0C480068F1
:1026300000F000700028F9D00948406820F003003D
:10264000074948600846406840F00200486000BF03
:102650000348406800F00C000828F9D10CBD0000C8
:10266000001002400020024010B500F001F810BD3B
:1026700010B51B48006840B119480068401E184951
:10268000086010B9012017490870002408E004EB25
:102690004401154A02EB810000F0DDFE601CC4B26B
:1026A000042CF4DB11480068401C104908600846FF
:1026B00000686FF00041884202D100200B49086099
:1026C00000F0C8FE0A480078401CC0B208490870F3
:1026D0000A2803DB0020087000F0B8FE10BD0000DF
:1026E00010000020140000206400002018000020CA
:1026F0001C00002010B51348006840F0010011498B
:10270000086008464068104908400E49486008467D
:1027100000680E4908400B4908600846006820F42C
:10272000802008600846406820F4FE0048604FF4AE
:102730001F008860FFF723FF4FF000600449086026
:1027400010BD0000001002400000FFF8FFFFF6FE81
:1027500008ED00E010B500BF40F22551104800F030
:1027600014F958B10E48001D0088C1B20D48028806
:102770000088401C0B4B18800B48815440F22441C8
:10278000074800F002F948B105480088C4B204487F
:10279000001D0088C4B201200449087010BD00006B
:1027A000003801402200002001010020200000200C
:1027B00010B540F225510B4800F0E7F880B1094808
:1027C00000F09EF9C4B208480078402808DA0748AB
:1027D00005490978445404480078401C02490870AF
:1027E00010BD00000044004038000020010500201A
:1027F0002DE9F04107460D460E48067800240020DA
:1028000028700A2000F088FF0A48007886420FD11D
:1028100076B100BF04E00848005D3855601CC4B2C2
:10282000B442F8DB034800782870002001490870A2
:10283000BDE8F081380000200105002070B5054694
:102840000E4600240CE000BF40210C4800F090F838
:102850000028F9D0295D094800F057F9601CC4B27E
:10286000B442F0DB00BF4021044800F081F80028AA
:10287000F9D000200249087070BD000000440040FB
:102880003800002010B540F225510B4800F07DF8CB
:1028900080B1094800F034F9C4B2084800784028F3
:1028A00008DA074805490978445404480078401C70
:1028B0000249087010BD00000048004039000020A7
:1028C000550500202DE9F04107460D460E480678D3
:1028D0000024002028700A2000F01EFF0A4800781B
:1028E00086420FD176B100BF04E00848005D38553C
:1028F000601CC4B2B442F8DB0348007828700020A2
:1029000001490870BDE8F08139000020550500201C
:1029100070B505460E4600240CE000BF40210C486F
:1029200000F026F80028F9D0295D094800F0EDF8FC
:10293000601CC4B2B442F0DB00BF4021044800F088
:1029400017F80028F9D000200249087070BD000077
:10295000004800403900002021B1828942F4005231
:10296000828104E082894DF6FF731A4082817047AC
:1029700002460020B1F5007F00D100BF13880B4054
:102980000BB1012000E00020704770B50246002422
:1029900000230025002040F66A16B14200D100BF96
:1029A000C1F3421501F01F03012606FA03F3012DBE
:1029B00002D19689334006E0022D02D1168A3340B7
:1029C00001E0968A33400C12012606FA04F41688B8
:1029D000344013B10CB1012000E0002070BDF0B50F
:1029E0000346002400260025002040F66A17B9425D
:1029F00000D100BF1846C1F3421401F01F060127A1
:102A000007FA06F5012C01D10C3004E0022C01D1AB
:102A1000103000E014301AB107682F43076002E05D
:102A20000768AF430760F0BD2DE9F04786B0054663
:102A30000E460024A24600BFA1460027B08900B17F
:102A400000BF2F462C8A4CF6FF700440F0880443E8
:102A50002C82AC894EF6F3100440B08831890843CB
:102A6000718908430443AC81AC8A4FF6FF400440AF
:102A7000B0890443AC8201A8FFF7FCFB1F488742E2
:102A800002D1DDF810A001E0DDF80CA0A88900F467
:102A9000004040B10AEBCA0000EB0A10316849005F
:102AA000B0FBF1F807E00AEBCA0000EB0A1031684E
:102AB0008900B0FBF1F86420B8FBF0F004012009B4
:102AC000642101FB1089A88900F4004040B1322044
:102AD00000EBC900B0FBF1F000F00700044308E090
:102AE000322000EB09106421B0FBF1F000F00F0080
:102AF00004432C8106B0BDE8F08700000038014097
:102B000001468888C0F308007047C1F3080282803C
:102B10007047000000200249088002490870704791
:102B2000220000202000002000BFFEE70020014915
:102B300008607047082C004001480068C0B2704728
:102B4000082C004010B5FFF7F7FF20B1FFF7EEFFAC
:102B50007F2000F001F810BD00F07F01014A1160F4
:102B600070470000002C0040490050EAC12018BF07
:102B700004204A0D18BF40F0010040F2FF72B2EB92
:102B8000515F08BF40F00200012808BF05207047D0
:102B900080F31088704730380A2801D2012070472E
:102BA0000020704700BF704700200149086070474F
:102BB000A00121420120014908607047A001214283
:102BC0000146042901DB0020704701EB4100084A5F
:102BD00002EB80004078012808D1002001EB41027F
:102BE000034B03EB820250700120EDE70020EBE77E
:102BF0006400002010B5044604B910BD012C00D1BA
:102C000002240120FFF7C4FF09480460002009499D
:102C10000870FFF7BDFF06E000F0BEF80548007839
:102C2000012800D100E0F7E700BF00BFE5E70000A2
:102C30001000002014000020F0B5034600224FF0E1
:102C4000E02675690F4E36680F4FB6FBF7F606FBA8
:102C500003F400BF4FF0E026B16910E04FF0E0262A
:102C6000B06988420BD0884202D20E1A324402E088
:102C70002E1A0E4432440146A24200D300E0EDE792
:102C800000BFF0BD3C00002040420F0070B505467B
:102C9000304800EB05142068804700283ED020799A
:102CA000052802DA0520207152E020790A2803DA8B
:102CB0002079401C20714BE0A07A38B90120A07225
:102CC00005EB4501491CC8B200F074FB20890028BF
:102CD0003EDDE088218988420DDAE088401C80B220
:102CE000E0802189884233D105EB4501C91CC8B277
:102CF00000F060FB2CE0E07A002829DD207B401CFE
:102D0000C0B22073E17A884222DB0020207305EBF9
:102D10004501491CC8B200F04DFB19E02079052897
:102D200002DD0520207110E0207918B12079401EC5
:102D300020710AE0A07A012807D10020A07205EBDB
:102D40004501891CC8B200F035FB0020E0802073EB
:102D500070BD000094000020012803D10021054A25
:102D6000116005E0022803D10021024A121D116002
:102D700070470000A0812142012803D10121054AAA
:102D8000116005E0022803D10121024A121D1160E1
:102D900070470000A0812142704710B54FF4A06039
:102DA000FFF7ACF800F0F8F800F078F800F008F859
:102DB00000F076F94FF4614000F0C0F910BD00005A
:102DC00008B501210420FFF745FA03208DF8020021
:102DD00010208DF803000001ADF80000694602489C
:102DE000FEF776FD08BD00000008014008B501218E
:102DF0000820FFF72FFA0120FFF7AEFF0220FFF7B0
:102E0000ABFF03208DF8020010208DF803000001B5
:102E1000ADF8000069460648FEF75AFD4FF4007011
:102E2000ADF8000069460248FEF752FD08BD0000FB
:102E3000000C014008B501210820FFF70BFA012121
:102E40000820FFF707FA0120ADF8000010208DF8E8
:102E5000030003208DF8020069460C48FEF738FD98
:102E600001210A48FEF708FE0220ADF800001020FC
:102E70008DF8030003208DF8020069460348FEF731
:102E800027FD02210148FEF7F7FD08BD000C0140B7
:102E900010B5FFF759FAFEF76BFC10BD10B500F046
:102EA0003BF800F001F810BD08B501214420FFF700
:102EB000D1F901211548FEF797FD1020ADF800006B
:102EC00048208DF8030069461148FEF701FD0820EF
:102ED000ADF8000048208DF8030069460C48FEF765
:102EE000F7FC0420ADF8000048208DF80300694687
:102EF0000748FEF7EDFC0120ADF8000028208DF812
:102F0000030069460348FEF7E3FC08BD00023000F9
:102F100000180140000801400021174A9172D17247
:102F20001173002018E06421144A02EB0012118191
:102F30000221124A02EB0012117100210F4A02EB2A
:102F4000001291720D4A02EB0012D1720B4A02EB91
:102F500000121173411CC8B20628E4DB0849074A75
:102F60001160084911610849116208491163084953
:102F70001164084911657047F40000209400002096
:102F8000651D0008951D0008C51D0008F51D0008F9
:102F9000251E0008551E000808B501211020FFF766
:102FA00059F9012000F0EAF9022000F0E7F90320C6
:102FB0008DF8020010208DF803004002ADF80000EB
:102FC00069460648FEF784FC4FF40050ADF8000057
:102FD00069460248FEF77CFC08BD00000010014075
:102FE00070B500240025FFF725FFFEF791FF0520AF
:102FF00000F092FBFEF759FD0446642000F092FBBE
:10300000FEF74BFD054645F24940844205D143F2A7
:103010000100854201D1002070BD0120FCE70000C5
:1030200008B501210820FFF715F9012000F0D2F9B9
:10303000022000F0CFF9032000F0CCF9042000F0CA
:10304000C9F903208DF8020010208DF803008020BC
:10305000ADF8000069460C48FEF73AFC4020ADF898
:10306000000069460848FEF733FC2020ADF8000058
:1030700069460548FEF72CFC1020ADF800006946B3
:103080000148FEF725FC08BD000C014010B5642086
:1030900000F042FBFFF71AFA642000F03DFB10BD80
:1030A00070B5002016E0002100EB40021F4B03EB3F
:1030B0008202516000EB400203EB8202916000EB60
:1030C000400203EB8202517000EB400203F8221031
:1030D000411CC8B20428E6DB154909684FF47A732D
:1030E000B1FBF3F2B2F1807F00D31DE022F07F410B
:1030F000491E4FF0E023596159170F23002907DAC1
:103100001C07260E0B4C01F00F052D1F665503E022
:103110001C07250E084C655400BF00214FF0E0232A
:1031200099610721196100BF70BD00006400002093
:103130003C00002018ED00E000E400E010B586B08F
:10314000044601210420FFF785F801218803FFF7D9
:1031500081F818208DF817004FF40070ADF81400B6
:1031600003208DF8160005A91F48FEF7B1FB4FF4A8
:103170008060ADF8140004208DF8170005A91A48E6
:10318000FEF7A6FB01940020ADF810000C20ADF86E
:103190000E000020ADF80C00ADF80A00ADF80800F4
:1031A00001A91248FFF740FC25208DF800000120FE
:1031B0008DF8030003208DF801008DF802006846A9
:1031C000FEF764FE012240F225510848FFF707FC94
:1031D000012240F224410548FFF701FC0121034888
:1031E000FFF7BAFB06B010BD0008014000380140EF
:1031F00010B586B0044601210420FFF72BF8012109
:103200004804FFF707F818208DF817000420ADF8E0
:10321000140003208DF8160005A92148FEF758FB7D
:103220000820ADF8140004208DF8170005A91C48EB
:10323000FEF74EFB01214804FEF7FCFF00214FF48E
:103240000030FEF7F7FF01940020ADF810000C20CD
:10325000ADF80E000020ADF80C00ADF80A00ADF896
:10326000080001A90F48FFF7DFFB26208DF80000BA
:1032700001208DF8030003208DF801008DF8020075
:103280006846FEF703FE012240F225510548FFF78C
:10329000A6FB01210348FFF75FFB06B010BD00004D
:1032A000000801400044004010B586B004460121EA
:1032B0000820FEF7CFFF01218804FEF7ABFF18209E
:1032C0008DF817004FF48060ADF8140003208DF8DE
:1032D000160005A92148FEF7FBFA4FF40060ADF88F
:1032E000140004208DF8170005A91C48FEF7F0FA19
:1032F00001218804FEF79EFF00214FF48020FEF795
:1033000099FF01940020ADF810000C20ADF80E00DC
:103310000020ADF80C00ADF80A00ADF8080001A9D6
:103320000F48FFF781FB27208DF8000001208DF862
:10333000030003208DF801008DF802006846FEF7B7
:10334000A5FD012240F225510548FFF748FB012168
:103350000348FFF701FB06B010BD0000000C014060
:103360000048004010B5002404E02046FFF78EFC22
:10337000601CC4B2062CF8DB10BD0000012803D18C
:103380000121044A116004E0022802D10121014A0E
:1033900011607047B4012242012803D10021044A80
:1033A000116004E0022802D10021014A1160704737
:1033B000B40122420649C97A054A50541146C97AD5
:1033C000491CC9B2D1720A2901DB0021D1727047B0
:1033D000F4000020012803D100210C4A116013E001
:1033E000022804D10021094A121F11600CE00328B1
:1033F00004D10021054A083A116005E0042803D1F0
:103400000021024A0C3A1160704700009C81214261
:10341000012803D101210C4A116013E0022804D1D4
:103420000121094A121F11600CE0032804D1012177
:10343000054A083A116005E0042803D10121024A37
:103440000C3A1160704700009C81214210B5FFF7D3
:1034500089FF10BD7047416851B14168491E416004
:1034600031B9012141700178012901D181684160A0
:103470007047000070B504460D46042C01DB00BF08
:10348000FEE70120FFF784FB04EB44000C4901EB4D
:103490008000456004EB440001EB80008560002063
:1034A00004EB4401064A02EB81014870012004EB61
:1034B000440102F821000020FFF76AFB70BD000004
:1034C0006400002010B50446042C01DB00BFFEE7B9
:1034D0000120FFF75DFB002004EB4401074A02EBEB
:1034E0008101486004EB440102EB8101487004EB68
:1034F000440102F82100FFF74BFB10BD64000020DF
:1035000011480078322803D13120104908701AE0A0
:103510000D480078312813D00B48007833280FD09D
:103520000948007834280BD007480078352807D0A0
:1035300005480078362803D003480078372802D1A0
:103540003020024908707047010100200C00002063
:1035500010B52848007800F08BFE04462648016824
:10356000204600F099FE03D20120FFF705FC0DE094
:103570002248007800F07CFE04461F48016820467F
:1035800000F009FF02D20120FFF7E6FB1C4800789B
:1035900001280BD1FFF700FFFFF70CFB4FF4FA6196
:1035A0000120FFF767FF0C20164908700120FFF784
:1035B00007FB38B1FFF7F8FA002012490870012024
:1035C000FFF780FF10480078012807D10C200F4931
:1035D00008704FF4FA610220FFF74CFF0220FFF75A
:1035E000EFFA28B10220FFF76DFF002007490870AD
:1035F00010BD00000800002030000020090000205D
:10360000290000200B000020280000200A000020D4
:103610002DE9F04389B0FEF7CBFC2B490880FDF77C
:1036200033FF2A490880FEF729FA054600F020FEFC
:103630000446274900F05AFD26490860FEF7D0FEEF
:1036400018B1FFF7F7FBFFF721FD322000F064F817
:1036500021480078312826D11E48006800F00EFD70
:1036600004460D461D48006800F008FD06460F465A
:103670001B48006800F002FD804689461948007822
:1036800019490978CDE90445CDE906100E480088AE
:103690000E49098842464B46CDE90067CDE9021044
:1036A00012A0FCF7A9FD1A480078012802D10020D9
:1036B0001749087017480078012802D100201549E1
:1036C000087009B0BDE8F08302000020000000206F
:1036D0000000C842040000200C000020340000203C
:1036E000300000200B0000200A0000203030322C77
:1036F000252E31662C252E31662C25642C25642C34
:10370000252E32662C25642C25640D0A000000004D
:10371000280000202900002010B504462046FFF7AD
:1037200069FA10BD10B504462046FFF785FA10BDB2
:1037300000BF054A128802F04002002AF9D0C2B246
:10374000014B1B1D1A8070470038014002460020C3
:10375000012104E0535C0344D8B24B1CD9B20829C0
:10376000F8DBC0F1FF00431CD8B2704702460020CE
:10377000012104E0535C0344D8B24B1CD9B20829A0
:10378000F8DBC0F1FF00431CD8B27047FFF705FB20
:10379000FEF77CFCFEF74CFC4FF41650FFF728FDBB
:1037A0004FF41650FFF780FDFFF73AFCFFF71EFBC2
:1037B000FFF716FCFFF76CFB4FF496710020FFF744
:1037C00059FE13E0FFF7E8FA09480078012805D10F
:1037D000FDF798FEFFF794FEFFF79CF9FFF7B8FEA0
:1037E0000020FFF7EDF908B1FFF712FFEAE700004C
:1037F0002000002010B500290AD00878002807D042
:1038000005487844FDF736FA002801D0002010BDA5
:103810000248784410BD0000460D00003E0D000037
:1038200021F00042A2F16052B2F5801F01F0004386
:1038300028BFD2F17F6C0BD95FEA001C43EAC202B9
:1038400042EB507018BF704728BF20F0010070474E
:10385000B2F5801FBCBF184670474FEA410C1CF5FB
:10386000001F02D2084600F091BD70B500F0C8FA02
:1038700000000089FFF7F6BF4FF00040A0F5800080
:103880007047000010B591EA030F48BF83F0004372
:1038900000F11283841A71EB030C05D2121943EB69
:1038A0000C03001B61EB0C01DFF824E14FEA11541B
:1038B000A4EB135C1EEA430F18BF9EEA445F73D06B
:1038C00023EA0E03DCF1200E21EA045143F48013B5
:1038D00032D322FA0CFE10EB0E0023FA0CFE41EB61
:1038E0000E01CCF1200E03FA0EFE10EB0E0051F18A
:1038F0000001B1F5801FCCF1200E32D201EB045152
:1039000012FA0EF2BDE8104058BF7047401C38BF95
:103910005FEA420218BF7047002814BF20F0010080
:1039200041F100014FEA410313F5001F38BF704712
:10393000A1F1C04100F0B2BA012A43EB0302ACF19D
:10394000200CDCF11F0E32BF4FF0000E23FA0CF3F7
:1039500010EB030041EB0451B4EB115FD0D0A1EBAD
:10396000045101F5801149085FEA300001EB045170
:103970000ED350F1000038BF12FA0EFE08D1BDE898
:103980001040C9E7401C38BF5FEA4202CAD1C3E712
:10399000BDE810404FEA410313F5001F38BF7047E0
:1039A000A1F1C04100F07ABA9EEA445F08D011EA62
:1039B0005E0FBDE8104004BF01F0004100207047D9
:1039C000BDE8104070B500F01BFA00BF64FBBE3EBE
:1039D0000000E0FF2DE9C04130B4DFF8A0C23CEAAE
:1039E000111418BF3CEA131400F0EC8081EA0305BF
:1039F0001CEA111444EAD57418BF1CEA131500F030
:103A0000C780A4EB05044FF0004545EAC12145EA13
:103A1000C32341EA505143EA525304F17F7499425F
:103A200004F500344FEAC0204FEAC22208BF90429A
:103A300000F09C804FEA13650FF24016765D4FEA66
:103A4000134506FB05F7C7F1807706FB07F74FEA3A
:103A5000D737A7FB03687642C8F58038A7FB06CEA8
:103A600038BFA8F1010807FB08E64FF0000EA6FBDF
:103A7000028CE6FB03CEDCF1000CCEF1004E38BF29
:103A8000AEF1010EA6FB0C584FF000074FF00005F9
:103A9000E6FB0E87A1FB08C6A0FB07CE16EB0E06C1
:103AA00045F10005E1FB076515F1E04E7EBFA4F589
:103AB00080345FEA46066D4116F1800745F1000546
:103AC0004FEA17274FEA066647EA0567A6F1DE4682
:103AD000B6F1805F4FEA15251FD9384624F0010C56
:103AE00005EBC471BCF1FE6F01EB0C1102D8F0BC08
:103AF000BDE8008124425CBF01F5801E9EEAC47FC0
:103B000002D4F0BCBDE80081244238D4F0BCA1F15D
:103B1000C041BDE8004100F0C1B94FEAD22242EAFB
:103B200043524FEAD323A7FB02864FEAD02040EA54
:103B3000415007FB03661EEA0E0F4FEAD12105FB39
:103B4000026658BFA6EB0056B6EB00564FEA520E7F
:103B50004EEAC37E18EB0E0E56EB530EBDD518EB96
:103B600002085E417F1C55F10005B6E74FF4801551
:103B70004FF000074FF000064FF00008ADE7F0BC33
:103B80004FF0000001F1C04101F00041BDE80081AB
:103B900011EA0C1F0CEA131500D00CE013EA0C1FFD
:103BA00000F025804FF00000F0BC81EA030101F035
:103BB0000041BDE80081F0BCBDE8004181EA03019D
:103BC00000F06CB9F0BCBDE8004170B500F018F928
:103BD000097EFC3E00F007B881EA03014FF00000C7
:103BE00001F00041704781EA030100F057B9F0BCD1
:103BF000BDE800414FF0000021497047FFFDFBF98F
:103C0000F7F5F4F2F0EEEDEBE9E8E6E4E3E1E0DE0F
:103C1000DDDBDAD8D7D5D4D3D1D0CFCDCCCBCAC881
:103C2000C7C6C5C4C2C1C0BFBEBDBCBBBAB9B8B7A8
:103C3000B6B5B4B3B2B1B0AFAEADACABAAA9A8A89B
:103C4000A7A6A5A4A3A3A2A1A09F9F9E9D9C9C9B69
:103C50009A99999897979695959493939291919014
:103C60008F8F8E8E8D8C8C8B8B8A898988888787A5
:103C70008685858484838382828181800000FF071A
:103C80000000F87FB0FA80F310FA03F10AD0C3F114
:103C90001D0303F580634FEA41504FEA035202EBE4
:103CA000D12170474FF0000070470000DFF848C195
:103CB00070B51CEA111E1EBF1CEA13159EEA0C0FFC
:103CC00095EA0C0F00F06F8081EA030423EA4C139D
:103CD0004EEAD47E21EA4C1141F4801143F4801362
:103CE000AE44A1FB024CA0FB0365AEF17F7E36190A
:103CF00055EB0C05A1FB034C4CF10003A0FB021C8F
:103D000016EB0C06654153F10003094218BF46F05B
:103D1000010613F4007F0BD14FEA03314FEA05305F
:103D2000340341EA155140EA16506FF003020AE0ED
:103D30004FEAC3214FEAC520F40241EA555140EA57
:103D400056506FF0020202EB2E4201EB025585EA5B
:103D5000CE710AD05FEA440C18BF24F0004450F141
:103D6000000041F1000120EAD47040F2FE7C62457F
:103D700000D270BDA84214BF4FF080444FF04044C1
:103D8000002E08BF0024BEF1806FA8BFA1F1C04182
:103D9000BDE8704080F282804FF0000001F1C04128
:103DA00001F0004170479EEA0C0F0CEA131518BF92
:103DB00095EA0C0F06D04FF0000081EA030E0EF0DA
:103DC000004170BD00F01CF88900013E00F007B80A
:103DD00000F009B84FEA430C5FEA5C5C08D081EA66
:103DE000030100F05BB84FEA410C5FEA5C5CF6D17E
:103DF0004FF00000014970470000FF070000F87F06
:103E00000EF1020E2EF0030E5EF8046B364205D45E
:103E1000012A43EB030515F5001F12D8012841EBD9
:103E2000010C1CF5001F0CD80ED14FEAD17C15F502
:103E3000001F0CEB4C0C0CF1020C08BF4CEBD37CBC
:103E400004E04FF0080C01E04FEAD37C0CEB4C058A
:103E500026FA05F606F00706B6F1040C06D20EEBBC
:103E6000860CBDE870404CF0010C6047DFE80CF0B8
:103E7000090B02024FF000414FF00000A1F50021B4
:103E800070BD19461046012851EB010418BFD4F546
:103E9000001484BF002001F0004170BD0808A0F5A7
:103EA00000114FEA3101704710B591EA030F48BF86
:103EB00083F000433FF5EEAC841A71EB030C07D29C
:103EC00012198CF0004C43EB0C03001B61EB0C014E
:103ED000DFF8A4E14FEA1154A4EB135C1EEA430F90
:103EE00018BF9EEA445F00F0B08023EA6E0352429E
:103EF00021EA0451C3EB6E0338BF5B1EDCF1200ED8
:103F000025D322FA0CFE10EB0E0043FA0CFE41EB17
:103F10000E01CCF1200E03FA0EFE10EB0E0051F153
:103F20000001CCF1200E29D412FA0EF201EB04515B
:103F3000BDE8104058BF7047401C1CBFB2F1004F95
:103F4000704700280CBF491C20F00100704712EB9D
:103F5000020E43EB030218BF4FF0010E4EEA42027D
:103F6000ACF1200CDCF11E0E54D943FA0CFE10EB20
:103F70000E0051F1FF31CCF11E0ED5D50EF1010E20
:103F800012FA0EFE404141EB010101EB445C5FEA95
:103F90005C5C10D910EBDE7001EB045138BFBEF150
:103FA000004FBDE8104018BF704700280CBF491CE7
:103FB00020F00100704730D24FEAD42C11F50011E7
:103FC00024F400641BD0B1FA81F20B3AA41AA41EA7
:103FD000D2F12003914030FA03F31943904001EBF2
:103FE000CC71002C01EB0451BDE81040A8BF704714
:103FF00001F1C0414FF0000001F000417047B0FAFC
:1040000080F310FA03F100D110BDE41A173C480503
:10401000C90AE4E701EB045110BD491001EB04515A
:10402000BDE810404FEA300002E04FF00001704759
:104030004A0008BF0042F8D0B2F5001F28BF704701
:1040400001F000414FF0000070479EEA445F07D046
:1040500011EA5E0FBDE8104004BF00210020704748
:10406000BDE8104070B5FFF7CBFE00BF40DFF63E65
:1040700083F00041104670470000E0FF43004FEA24
:10408000D30C4FEA3C0C43401FBF40070CF160517A
:1040900013F0FE4F70471CF0006F03D100200CF0AE
:1040A000004170470CF0004343EA507010B540EAFD
:1040B000CC0000F025F900BF000000924FEA00019B
:1040C000FFF7ECBE4FF000414FF00000A1F50021DA
:1040D0007047401058BFC0F14040491058BFC1F16F
:1040E00040418142EFF30080704700004FF47F0CA5
:1040F0001CEAD0121EBF1CEAD11392EA0C0F93EAFD
:104100000C0F00F0858090EA010F48BF42F48072E6
:1041100040F4000C41F400002CF07F4120F07F407F
:1041200000B58142A2EB03020FF2081CACEB504E2B
:10413000C0F100009EF800E04FEA4E0E00FB0EFCBE
:1041400038BF49004FEA2C1C02F5FA020CFB0EF3B3
:104150004FEACE1E4FEA112C4FEAC1210EEB635EEF
:1041600042EB22420EFB0CFC4FEA1C5300FB0311F6
:104170004FEA112C4FEA01310EFB0CFC4FEADC4CEC
:1041800000FB0C11C14228BF09184CEB03335DF84A
:1041900004EB10EB410143EBC250B2F57C0F38BF8A
:1041A000704729D512F0F00F1CBF00F1C04000F09D
:1041B00000407047008182838485868788898B8C44
:1041C0008D8E8F919293959697999A9C9D9FA0A280
:1041D000A3A5A7A8AAACAEB0B2B3B5B7B9BCBEC0D0
:1041E000C2C5C7C9CCCED1D4D7D9DCDFE2E6E9EC71
:1041F000F0F3F7FAFE0000004FEA400C0CF1807C6F
:10420000BCF17E4F28BF7047B0F1C04000F0BEB88F
:1042100090EA010F0CEAD11348BF42F48072624564
:1042200038BF634507D213F47F0F16D080EA010030
:1042300000F00040704710B500F062F8097EFC3EC7
:1042400000F005B880EA010000F00040704780EA05
:10425000010000F0004000F099B812F47F0F04BF95
:104260000248704780EA010000F090B80000C07F6B
:10427000B0FA80F310FA03F2C3F19D030AD0D90516
:1042800001EB1220530638BF704700F1010008BF50
:1042900020F001007047000050EA010C00F113808B
:1042A0001CF5000F58BFBCF5000F01D488427047C1
:1042B00007D710F5000F58BF11F5000F15D488422D
:1042C0007047894270471CF5000F04D5BCF5000FFC
:1042D000F7D5814270474FF0807C1CEB400F38BF10
:1042E0001CEB410F01D28142704710B500F008F875
:1042F000922449004FF000504FF08051FFF7E9BE83
:104300000EF1020E2EF0030E5EF8044B244204D48C
:104310004FEA4102B2F17F4F11D84FEA4003B3F1A7
:104320007F4F0CD80ED14FEAD07CB2F17F4F0CEB0F
:104330004C0C0CF1020C08BF4CEBD17C04E04FF0AC
:10434000080C01E04FEAD17C0CEB4C0324FA03F497
:1043500004F00704B4F1040C06D20EEB840CBDE8A3
:1043600010404CF0010C6047DFE80CF00708020237
:104370004FF00040A0F5800010BD0846420018BF75
:10438000D2F1807288BF00F0004010BDFF2141EAE9
:10439000D050C005704751EA000C00F113801CF5A5
:1043A000000F58BFBCF5000F01D48142704707D7FA
:1043B00011F5000F58BF10F5000F15D4814270475A
:1043C000894270471CF5000F04D5BCF5000FF7D5E6
:1043D000884270474FF0807C1CEB410F38BF1CEBCC
:1043E000400F01D28842704780EA010081EA000153
:1043F00080EA0100FFF779BFFCF794B9FF0186005E
:104400000000000079FF01860000000000793031D3
:1044100032333435363738394142434445464030EB
:10442000580030313233343536373839616263649D
:1044300065664030780004000008000000000000BD
:10444000000200010000100002400000000000A077
:104450000000000005400000000000C8000000004F
:104460000C4000000000409C0000000019400000CB
:104470000020BCBE0000000034400000BFC91B8EFD
:1044800000000004B5400000504BCFD06607E2CFDB
:10449000010000006C4100003E8251AADFEEA7340B
:1044A00001000000D9420000DCB5A0E23A301F97BD
:1044B000FFFFFFFFB4450000FD25A0C8E9A3C14FE1
:1044C000FFFFFFFFFF3F0000000000800000000032
:1044D000FF3F00000000008000000000322EC3BF3C
:1044E000203120C3EBB6C1C8A1B2A2CFD4CABED27C
:1044F000BBB4CE20434F3220CAFDBEDDA3ACD7A251
:10450000D2E220434F3220C9CFB5E7D4A4C8C82097
:104510003320B7D6D6D3BAF3CAFDBEDDB2C5D7BCF9
:10452000C8B70D0A00000000644500080000002024
:104530006400000028010008C8450008640000204D
:10454000940B0000440100081C0000004300000020
:10455000F8FFFFFF0C0000000E0000000F0000003D
:104560002E00000000000000000000001B190000E9
:10457000300000000000000000000000000000000B
:10458000000000000000000000000000000000002B
:10459000000000000000000000000000000000001B
:1045A00000A24A0400000000000000000102030411
:1045B00006070809000000000102030401020304C9
:0845C0000607080902040608C1
:04000005080000ED02
:00000001FF
